{
  "contractName": "TamaToken",
  "abi": [
    {
      "inputs": [
        {
          "internalType": "string",
          "name": "_name",
          "type": "string"
        },
        {
          "internalType": "string",
          "name": "_symbol",
          "type": "string"
        }
      ],
      "stateMutability": "nonpayable",
      "type": "constructor"
    },
    {
      "anonymous": false,
      "inputs": [
        {
          "indexed": true,
          "internalType": "address",
          "name": "owner",
          "type": "address"
        },
        {
          "indexed": true,
          "internalType": "address",
          "name": "approved",
          "type": "address"
        },
        {
          "indexed": true,
          "internalType": "uint256",
          "name": "tokenId",
          "type": "uint256"
        }
      ],
      "name": "Approval",
      "type": "event"
    },
    {
      "anonymous": false,
      "inputs": [
        {
          "indexed": true,
          "internalType": "address",
          "name": "owner",
          "type": "address"
        },
        {
          "indexed": true,
          "internalType": "address",
          "name": "operator",
          "type": "address"
        },
        {
          "indexed": false,
          "internalType": "bool",
          "name": "approved",
          "type": "bool"
        }
      ],
      "name": "ApprovalForAll",
      "type": "event"
    },
    {
      "anonymous": false,
      "inputs": [
        {
          "indexed": true,
          "internalType": "address",
          "name": "owner",
          "type": "address"
        },
        {
          "indexed": false,
          "internalType": "uint256",
          "name": "id",
          "type": "uint256"
        },
        {
          "indexed": false,
          "internalType": "uint256",
          "name": "dna",
          "type": "uint256"
        }
      ],
      "name": "NewTamaEvent",
      "type": "event"
    },
    {
      "anonymous": false,
      "inputs": [
        {
          "indexed": true,
          "internalType": "address",
          "name": "previousOwner",
          "type": "address"
        },
        {
          "indexed": true,
          "internalType": "address",
          "name": "newOwner",
          "type": "address"
        }
      ],
      "name": "OwnershipTransferred",
      "type": "event"
    },
    {
      "anonymous": false,
      "inputs": [
        {
          "indexed": true,
          "internalType": "address",
          "name": "from",
          "type": "address"
        },
        {
          "indexed": true,
          "internalType": "address",
          "name": "to",
          "type": "address"
        },
        {
          "indexed": true,
          "internalType": "uint256",
          "name": "tokenId",
          "type": "uint256"
        }
      ],
      "name": "Transfer",
      "type": "event"
    },
    {
      "inputs": [
        {
          "internalType": "address",
          "name": "to",
          "type": "address"
        },
        {
          "internalType": "uint256",
          "name": "tokenId",
          "type": "uint256"
        }
      ],
      "name": "approve",
      "outputs": [],
      "stateMutability": "nonpayable",
      "type": "function"
    },
    {
      "inputs": [
        {
          "internalType": "address",
          "name": "owner",
          "type": "address"
        }
      ],
      "name": "balanceOf",
      "outputs": [
        {
          "internalType": "uint256",
          "name": "",
          "type": "uint256"
        }
      ],
      "stateMutability": "view",
      "type": "function",
      "constant": true
    },
    {
      "inputs": [
        {
          "internalType": "uint256",
          "name": "tokenId",
          "type": "uint256"
        }
      ],
      "name": "getApproved",
      "outputs": [
        {
          "internalType": "address",
          "name": "",
          "type": "address"
        }
      ],
      "stateMutability": "view",
      "type": "function",
      "constant": true
    },
    {
      "inputs": [
        {
          "internalType": "address",
          "name": "owner",
          "type": "address"
        },
        {
          "internalType": "address",
          "name": "operator",
          "type": "address"
        }
      ],
      "name": "isApprovedForAll",
      "outputs": [
        {
          "internalType": "bool",
          "name": "",
          "type": "bool"
        }
      ],
      "stateMutability": "view",
      "type": "function",
      "constant": true
    },
    {
      "inputs": [],
      "name": "name",
      "outputs": [
        {
          "internalType": "string",
          "name": "",
          "type": "string"
        }
      ],
      "stateMutability": "view",
      "type": "function",
      "constant": true
    },
    {
      "inputs": [],
      "name": "owner",
      "outputs": [
        {
          "internalType": "address",
          "name": "",
          "type": "address"
        }
      ],
      "stateMutability": "view",
      "type": "function",
      "constant": true
    },
    {
      "inputs": [
        {
          "internalType": "uint256",
          "name": "tokenId",
          "type": "uint256"
        }
      ],
      "name": "ownerOf",
      "outputs": [
        {
          "internalType": "address",
          "name": "",
          "type": "address"
        }
      ],
      "stateMutability": "view",
      "type": "function",
      "constant": true
    },
    {
      "inputs": [],
      "name": "renounceOwnership",
      "outputs": [],
      "stateMutability": "nonpayable",
      "type": "function"
    },
    {
      "inputs": [
        {
          "internalType": "address",
          "name": "from",
          "type": "address"
        },
        {
          "internalType": "address",
          "name": "to",
          "type": "address"
        },
        {
          "internalType": "uint256",
          "name": "tokenId",
          "type": "uint256"
        }
      ],
      "name": "safeTransferFrom",
      "outputs": [],
      "stateMutability": "nonpayable",
      "type": "function"
    },
    {
      "inputs": [
        {
          "internalType": "address",
          "name": "from",
          "type": "address"
        },
        {
          "internalType": "address",
          "name": "to",
          "type": "address"
        },
        {
          "internalType": "uint256",
          "name": "tokenId",
          "type": "uint256"
        },
        {
          "internalType": "bytes",
          "name": "data",
          "type": "bytes"
        }
      ],
      "name": "safeTransferFrom",
      "outputs": [],
      "stateMutability": "nonpayable",
      "type": "function"
    },
    {
      "inputs": [
        {
          "internalType": "address",
          "name": "operator",
          "type": "address"
        },
        {
          "internalType": "bool",
          "name": "approved",
          "type": "bool"
        }
      ],
      "name": "setApprovalForAll",
      "outputs": [],
      "stateMutability": "nonpayable",
      "type": "function"
    },
    {
      "inputs": [
        {
          "internalType": "bytes4",
          "name": "interfaceId",
          "type": "bytes4"
        }
      ],
      "name": "supportsInterface",
      "outputs": [
        {
          "internalType": "bool",
          "name": "",
          "type": "bool"
        }
      ],
      "stateMutability": "view",
      "type": "function",
      "constant": true
    },
    {
      "inputs": [],
      "name": "symbol",
      "outputs": [
        {
          "internalType": "string",
          "name": "",
          "type": "string"
        }
      ],
      "stateMutability": "view",
      "type": "function",
      "constant": true
    },
    {
      "inputs": [
        {
          "internalType": "uint256",
          "name": "tokenId",
          "type": "uint256"
        }
      ],
      "name": "tokenURI",
      "outputs": [
        {
          "internalType": "string",
          "name": "",
          "type": "string"
        }
      ],
      "stateMutability": "view",
      "type": "function",
      "constant": true
    },
    {
      "inputs": [
        {
          "internalType": "address",
          "name": "from",
          "type": "address"
        },
        {
          "internalType": "address",
          "name": "to",
          "type": "address"
        },
        {
          "internalType": "uint256",
          "name": "tokenId",
          "type": "uint256"
        }
      ],
      "name": "transferFrom",
      "outputs": [],
      "stateMutability": "nonpayable",
      "type": "function"
    },
    {
      "inputs": [
        {
          "internalType": "address",
          "name": "newOwner",
          "type": "address"
        }
      ],
      "name": "transferOwnership",
      "outputs": [],
      "stateMutability": "nonpayable",
      "type": "function"
    },
    {
      "inputs": [
        {
          "internalType": "string",
          "name": "_name",
          "type": "string"
        }
      ],
      "name": "createRandomTama",
      "outputs": [],
      "stateMutability": "payable",
      "type": "function",
      "payable": true
    },
    {
      "inputs": [
        {
          "internalType": "address",
          "name": "_owner",
          "type": "address"
        }
      ],
      "name": "getOwnerTamas",
      "outputs": [
        {
          "components": [
            {
              "internalType": "string",
              "name": "name",
              "type": "string"
            },
            {
              "internalType": "uint256",
              "name": "id",
              "type": "uint256"
            },
            {
              "internalType": "uint256",
              "name": "dna",
              "type": "uint256"
            },
            {
              "internalType": "uint8",
              "name": "level",
              "type": "uint8"
            },
            {
              "internalType": "uint8",
              "name": "rarity",
              "type": "uint8"
            }
          ],
          "internalType": "struct TamaToken.Tama[]",
          "name": "",
          "type": "tuple[]"
        }
      ],
      "stateMutability": "view",
      "type": "function",
      "constant": true
    },
    {
      "inputs": [
        {
          "internalType": "uint256",
          "name": "_fee",
          "type": "uint256"
        }
      ],
      "name": "updateFee",
      "outputs": [],
      "stateMutability": "nonpayable",
      "type": "function"
    },
    {
      "inputs": [],
      "name": "withdraw",
      "outputs": [],
      "stateMutability": "payable",
      "type": "function",
      "payable": true
    }
  ],
  "bytecode": "0x60806040526001600755670de0b6b3a76400006008553480156200002257600080fd5b5060405162003cf138038062003cf18339818101604052810190620000489190620002f9565b818181600090816200005b9190620005c9565b5080600190816200006d9190620005c9565b50505062000090620000846200009860201b60201c565b620000a060201b60201c565b5050620006b0565b600033905090565b6000600660009054906101000a900473ffffffffffffffffffffffffffffffffffffffff16905081600660006101000a81548173ffffffffffffffffffffffffffffffffffffffff021916908373ffffffffffffffffffffffffffffffffffffffff1602179055508173ffffffffffffffffffffffffffffffffffffffff168173ffffffffffffffffffffffffffffffffffffffff167f8be0079c531659141344cd1fd0a4f28419497f9722a3daafe3b4186f6b6457e060405160405180910390a35050565b6000604051905090565b600080fd5b600080fd5b600080fd5b600080fd5b6000601f19601f8301169050919050565b7f4e487b7100000000000000000000000000000000000000000000000000000000600052604160045260246000fd5b620001cf8262000184565b810181811067ffffffffffffffff82111715620001f157620001f062000195565b5b80604052505050565b60006200020662000166565b9050620002148282620001c4565b919050565b600067ffffffffffffffff82111562000237576200023662000195565b5b620002428262000184565b9050602081019050919050565b60005b838110156200026f57808201518184015260208101905062000252565b60008484015250505050565b6000620002926200028c8462000219565b620001fa565b905082815260208101848484011115620002b157620002b06200017f565b5b620002be8482856200024f565b509392505050565b600082601f830112620002de57620002dd6200017a565b5b8151620002f08482602086016200027b565b91505092915050565b6000806040838503121562000313576200031262000170565b5b600083015167ffffffffffffffff81111562000334576200033362000175565b5b6200034285828601620002c6565b925050602083015167ffffffffffffffff81111562000366576200036562000175565b5b6200037485828601620002c6565b9150509250929050565b600081519050919050565b7f4e487b7100000000000000000000000000000000000000000000000000000000600052602260045260246000fd5b60006002820490506001821680620003d157607f821691505b602082108103620003e757620003e662000389565b5b50919050565b60008190508160005260206000209050919050565b60006020601f8301049050919050565b600082821b905092915050565b600060088302620004517fffffffffffffffffffffffffffffffffffffffffffffffffffffffffffffffff8262000412565b6200045d868362000412565b95508019841693508086168417925050509392505050565b6000819050919050565b6000819050919050565b6000620004aa620004a46200049e8462000475565b6200047f565b62000475565b9050919050565b6000819050919050565b620004c68362000489565b620004de620004d582620004b1565b8484546200041f565b825550505050565b600090565b620004f5620004e6565b62000502818484620004bb565b505050565b5b818110156200052a576200051e600082620004eb565b60018101905062000508565b5050565b601f82111562000579576200054381620003ed565b6200054e8462000402565b810160208510156200055e578190505b620005766200056d8562000402565b83018262000507565b50505b505050565b600082821c905092915050565b60006200059e600019846008026200057e565b1980831691505092915050565b6000620005b983836200058b565b9150826002028217905092915050565b620005d4826200037e565b67ffffffffffffffff811115620005f057620005ef62000195565b5b620005fc8254620003b8565b620006098282856200052e565b600060209050601f8311600181146200064157600084156200062c578287015190505b620006388582620005ab565b865550620006a8565b601f1984166200065186620003ed565b60005b828110156200067b5784890151825560018201915060208501945060208101905062000654565b868310156200069b578489015162000697601f8916826200058b565b8355505b6001600288020188555050505b505050505050565b61363180620006c06000396000f3fe60806040526004361061011f5760003560e01c8063715018a6116100a0578063a22cb46511610064578063a22cb465146103b7578063b88d4fde146103e0578063c87b56dd14610409578063e985e9c514610446578063f2fde38b146104835761011f565b8063715018a6146102e45780637973e364146102fb5780638da5cb5b146103385780639012c4a81461036357806395d89b411461038c5761011f565b806323b872dd116100e757806323b872dd1461020e5780633ccfd60b1461023757806342842e0e146102415780636352211e1461026a57806370a08231146102a75761011f565b806301ffc9a71461012457806306fdde0314610161578063081812fc1461018c578063095ea7b3146101c95780630d542a08146101f2575b600080fd5b34801561013057600080fd5b5061014b600480360381019061014691906120be565b6104ac565b6040516101589190612106565b60405180910390f35b34801561016d57600080fd5b5061017661058e565b60405161018391906121b1565b60405180910390f35b34801561019857600080fd5b506101b360048036038101906101ae9190612209565b610620565b6040516101c09190612277565b60405180910390f35b3480156101d557600080fd5b506101f060048036038101906101eb91906122be565b610666565b005b61020c60048036038101906102079190612433565b61077d565b005b34801561021a57600080fd5b506102356004803603810190610230919061247c565b6107ce565b005b61023f61082e565b005b34801561024d57600080fd5b506102686004803603810190610263919061247c565b61088c565b005b34801561027657600080fd5b50610291600480360381019061028c9190612209565b6108ac565b60405161029e9190612277565b60405180910390f35b3480156102b357600080fd5b506102ce60048036038101906102c991906124cf565b610932565b6040516102db919061250b565b60405180910390f35b3480156102f057600080fd5b506102f96109e9565b005b34801561030757600080fd5b50610322600480360381019061031d91906124cf565b6109fd565b60405161032f91906126d3565b60405180910390f35b34801561034457600080fd5b5061034d610b7b565b60405161035a9190612277565b60405180910390f35b34801561036f57600080fd5b5061038a60048036038101906103859190612209565b610ba5565b005b34801561039857600080fd5b506103a1610bb7565b6040516103ae91906121b1565b60405180910390f35b3480156103c357600080fd5b506103de60048036038101906103d99190612721565b610c49565b005b3480156103ec57600080fd5b5061040760048036038101906104029190612802565b610c5f565b005b34801561041557600080fd5b50610430600480360381019061042b9190612209565b610cc1565b60405161043d91906121b1565b60405180910390f35b34801561045257600080fd5b5061046d60048036038101906104689190612885565b610d29565b60405161047a9190612106565b60405180910390f35b34801561048f57600080fd5b506104aa60048036038101906104a591906124cf565b610dbd565b005b60007f80ac58cd000000000000000000000000000000000000000000000000000000007bffffffffffffffffffffffffffffffffffffffffffffffffffffffff1916827bffffffffffffffffffffffffffffffffffffffffffffffffffffffff1916148061057757507f5b5e139f000000000000000000000000000000000000000000000000000000007bffffffffffffffffffffffffffffffffffffffffffffffffffffffff1916827bffffffffffffffffffffffffffffffffffffffffffffffffffffffff1916145b80610587575061058682610e40565b5b9050919050565b60606000805461059d906128f4565b80601f01602080910402602001604051908101604052809291908181526020018280546105c9906128f4565b80156106165780601f106105eb57610100808354040283529160200191610616565b820191906000526020600020905b8154815290600101906020018083116105f957829003601f168201915b5050505050905090565b600061062b82610eaa565b6004600083815260200190815260200160002060009054906101000a900473ffffffffffffffffffffffffffffffffffffffff169050919050565b6000610671826108ac565b90508073ffffffffffffffffffffffffffffffffffffffff168373ffffffffffffffffffffffffffffffffffffffff16036106e1576040517f08c379a00000000000000000000000000000000000000000000000000000000081526004016106d890612997565b60405180910390fd5b8073ffffffffffffffffffffffffffffffffffffffff16610700610ef5565b73ffffffffffffffffffffffffffffffffffffffff16148061072f575061072e81610729610ef5565b610d29565b5b61076e576040517f08c379a000000000000000000000000000000000000000000000000000000000815260040161076590612a29565b60405180910390fd5b6107788383610efd565b505050565b6008543410156107c2576040517f08c379a00000000000000000000000000000000000000000000000000000000081526004016107b990612a95565b60405180910390fd5b6107cb81610fb6565b50565b6107df6107d9610ef5565b82611151565b61081e576040517f08c379a000000000000000000000000000000000000000000000000000000000815260040161081590612b27565b60405180910390fd5b6108298383836111e6565b505050565b6108366114df565b6000610840610b7b565b90508073ffffffffffffffffffffffffffffffffffffffff166108fc479081150290604051600060405180830381858888f19350505050158015610888573d6000803e3d6000fd5b5050565b6108a783838360405180602001604052806000815250610c5f565b505050565b6000806108b88361155d565b9050600073ffffffffffffffffffffffffffffffffffffffff168173ffffffffffffffffffffffffffffffffffffffff1603610929576040517f08c379a000000000000000000000000000000000000000000000000000000000815260040161092090612b93565b60405180910390fd5b80915050919050565b60008073ffffffffffffffffffffffffffffffffffffffff168273ffffffffffffffffffffffffffffffffffffffff16036109a2576040517f08c379a000000000000000000000000000000000000000000000000000000000815260040161099990612c25565b60405180910390fd5b600360008373ffffffffffffffffffffffffffffffffffffffff1673ffffffffffffffffffffffffffffffffffffffff168152602001908152602001600020549050919050565b6109f16114df565b6109fb600061159a565b565b6060600960008373ffffffffffffffffffffffffffffffffffffffff1673ffffffffffffffffffffffffffffffffffffffff168152602001908152602001600020805480602002602001604051908101604052809291908181526020016000905b82821015610b7057838290600052602060002090600402016040518060a0016040529081600082018054610a91906128f4565b80601f0160208091040260200160405190810160405280929190818152602001828054610abd906128f4565b8015610b0a5780601f10610adf57610100808354040283529160200191610b0a565b820191906000526020600020905b815481529060010190602001808311610aed57829003601f168201915b5050505050815260200160018201548152602001600282015481526020016003820160009054906101000a900460ff1660ff1660ff1681526020016003820160019054906101000a900460ff1660ff1660ff168152505081526020019060010190610a5e565b505050509050919050565b6000600660009054906101000a900473ffffffffffffffffffffffffffffffffffffffff16905090565b610bad6114df565b8060088190555050565b606060018054610bc6906128f4565b80601f0160208091040260200160405190810160405280929190818152602001828054610bf2906128f4565b8015610c3f5780601f10610c1457610100808354040283529160200191610c3f565b820191906000526020600020905b815481529060010190602001808311610c2257829003601f168201915b5050505050905090565b610c5b610c54610ef5565b8383611660565b5050565b610c70610c6a610ef5565b83611151565b610caf576040517f08c379a0000000000000000000000000000000000000000000000000000000008152600401610ca690612b27565b60405180910390fd5b610cbb848484846117cc565b50505050565b6060610ccc82610eaa565b6000610cd6611828565b90506000815111610cf65760405180602001604052806000815250610d21565b80610d008461183f565b604051602001610d11929190612c81565b6040516020818303038152906040525b915050919050565b6000600560008473ffffffffffffffffffffffffffffffffffffffff1673ffffffffffffffffffffffffffffffffffffffff16815260200190815260200160002060008373ffffffffffffffffffffffffffffffffffffffff1673ffffffffffffffffffffffffffffffffffffffff16815260200190815260200160002060009054906101000a900460ff16905092915050565b610dc56114df565b600073ffffffffffffffffffffffffffffffffffffffff168173ffffffffffffffffffffffffffffffffffffffff1603610e34576040517f08c379a0000000000000000000000000000000000000000000000000000000008152600401610e2b90612d17565b60405180910390fd5b610e3d8161159a565b50565b60007f01ffc9a7000000000000000000000000000000000000000000000000000000007bffffffffffffffffffffffffffffffffffffffffffffffffffffffff1916827bffffffffffffffffffffffffffffffffffffffffffffffffffffffff1916149050919050565b610eb38161190d565b610ef2576040517f08c379a0000000000000000000000000000000000000000000000000000000008152600401610ee990612b93565b60405180910390fd5b50565b600033905090565b816004600083815260200190815260200160002060006101000a81548173ffffffffffffffffffffffffffffffffffffffff021916908373ffffffffffffffffffffffffffffffffffffffff160217905550808273ffffffffffffffffffffffffffffffffffffffff16610f70836108ac565b73ffffffffffffffffffffffffffffffffffffffff167f8c5be1e5ebec7d5bd14f71427d1e84f3dd0314c0f7b2291e5b200ac8c7c3b92560405160405180910390a45050565b6000610fc8662386f26fc1000061194e565b905060006040518060a001604052808481526020016007548152602001838152602001600160ff168152602001600160ff168152509050600960003373ffffffffffffffffffffffffffffffffffffffff1673ffffffffffffffffffffffffffffffffffffffff168152602001908152602001600020819080600181540180825580915050600190039060005260206000209060040201600090919091909150600082015181600001908161107d9190612ee3565b50602082015181600101556040820151816002015560608201518160030160006101000a81548160ff021916908360ff16021790555060808201518160030160016101000a81548160ff021916908360ff16021790555050506110e233600754611993565b3373ffffffffffffffffffffffffffffffffffffffff167faa53bee18524d71478838ab6ea8cb1897202e7df3abf3b4219b971f0d6a2fafa6007548460405161112c929190612fb5565b60405180910390a2600760008154809291906111479061300d565b9190505550505050565b60008061115d836108ac565b90508073ffffffffffffffffffffffffffffffffffffffff168473ffffffffffffffffffffffffffffffffffffffff16148061119f575061119e8185610d29565b5b806111dd57508373ffffffffffffffffffffffffffffffffffffffff166111c584610620565b73ffffffffffffffffffffffffffffffffffffffff16145b91505092915050565b8273ffffffffffffffffffffffffffffffffffffffff16611206826108ac565b73ffffffffffffffffffffffffffffffffffffffff161461125c576040517f08c379a0000000000000000000000000000000000000000000000000000000008152600401611253906130c7565b60405180910390fd5b600073ffffffffffffffffffffffffffffffffffffffff168273ffffffffffffffffffffffffffffffffffffffff16036112cb576040517f08c379a00000000000000000000000000000000000000000000000000000000081526004016112c290613159565b60405180910390fd5b6112d883838360016119b1565b8273ffffffffffffffffffffffffffffffffffffffff166112f8826108ac565b73ffffffffffffffffffffffffffffffffffffffff161461134e576040517f08c379a0000000000000000000000000000000000000000000000000000000008152600401611345906130c7565b60405180910390fd5b6004600082815260200190815260200160002060006101000a81549073ffffffffffffffffffffffffffffffffffffffff02191690556001600360008573ffffffffffffffffffffffffffffffffffffffff1673ffffffffffffffffffffffffffffffffffffffff168152602001908152602001600020600082825403925050819055506001600360008473ffffffffffffffffffffffffffffffffffffffff1673ffffffffffffffffffffffffffffffffffffffff16815260200190815260200160002060008282540192505081905550816002600083815260200190815260200160002060006101000a81548173ffffffffffffffffffffffffffffffffffffffff021916908373ffffffffffffffffffffffffffffffffffffffff160217905550808273ffffffffffffffffffffffffffffffffffffffff168473ffffffffffffffffffffffffffffffffffffffff167fddf252ad1be2c89b69c2b068fc378daa952ba7f163c4a11628f55a4df523b3ef60405160405180910390a46114da8383836001611ad7565b505050565b6114e7610ef5565b73ffffffffffffffffffffffffffffffffffffffff16611505610b7b565b73ffffffffffffffffffffffffffffffffffffffff161461155b576040517f08c379a0000000000000000000000000000000000000000000000000000000008152600401611552906131c5565b60405180910390fd5b565b60006002600083815260200190815260200160002060009054906101000a900473ffffffffffffffffffffffffffffffffffffffff169050919050565b6000600660009054906101000a900473ffffffffffffffffffffffffffffffffffffffff16905081600660006101000a81548173ffffffffffffffffffffffffffffffffffffffff021916908373ffffffffffffffffffffffffffffffffffffffff1602179055508173ffffffffffffffffffffffffffffffffffffffff168173ffffffffffffffffffffffffffffffffffffffff167f8be0079c531659141344cd1fd0a4f28419497f9722a3daafe3b4186f6b6457e060405160405180910390a35050565b8173ffffffffffffffffffffffffffffffffffffffff168373ffffffffffffffffffffffffffffffffffffffff16036116ce576040517f08c379a00000000000000000000000000000000000000000000000000000000081526004016116c590613231565b60405180910390fd5b80600560008573ffffffffffffffffffffffffffffffffffffffff1673ffffffffffffffffffffffffffffffffffffffff16815260200190815260200160002060008473ffffffffffffffffffffffffffffffffffffffff1673ffffffffffffffffffffffffffffffffffffffff16815260200190815260200160002060006101000a81548160ff0219169083151502179055508173ffffffffffffffffffffffffffffffffffffffff168373ffffffffffffffffffffffffffffffffffffffff167f17307eab39ab6107e8899845ad3d59bd9653f200f220920489ca2b5937696c31836040516117bf9190612106565b60405180910390a3505050565b6117d78484846111e6565b6117e384848484611add565b611822576040517f08c379a0000000000000000000000000000000000000000000000000000000008152600401611819906132c3565b60405180910390fd5b50505050565b606060405180602001604052806000815250905090565b60606000600161184e84611c64565b01905060008167ffffffffffffffff81111561186d5761186c612308565b5b6040519080825280601f01601f19166020018201604052801561189f5781602001600182028036833780820191505090505b509050600082602001820190505b600115611902578080600190039150507f3031323334353637383961626364656600000000000000000000000000000000600a86061a8153600a85816118f6576118f56132e3565b5b049450600085036118ad575b819350505050919050565b60008073ffffffffffffffffffffffffffffffffffffffff1661192f8361155d565b73ffffffffffffffffffffffffffffffffffffffff1614159050919050565b600080423360405160200161196492919061337b565b6040516020818303038152906040528051906020012060001c9050828161198b91906133a7565b915050919050565b6119ad828260405180602001604052806000815250611db7565b5050565b6001811115611ad157600073ffffffffffffffffffffffffffffffffffffffff168473ffffffffffffffffffffffffffffffffffffffff1614611a455780600360008673ffffffffffffffffffffffffffffffffffffffff1673ffffffffffffffffffffffffffffffffffffffff1681526020019081526020016000206000828254611a3d91906133d8565b925050819055505b600073ffffffffffffffffffffffffffffffffffffffff168373ffffffffffffffffffffffffffffffffffffffff1614611ad05780600360008573ffffffffffffffffffffffffffffffffffffffff1673ffffffffffffffffffffffffffffffffffffffff1681526020019081526020016000206000828254611ac8919061340c565b925050819055505b5b50505050565b50505050565b6000611afe8473ffffffffffffffffffffffffffffffffffffffff16611e12565b15611c57578373ffffffffffffffffffffffffffffffffffffffff1663150b7a02611b27610ef5565b8786866040518563ffffffff1660e01b8152600401611b499493929190613495565b6020604051808303816000875af1925050508015611b8557506040513d601f19601f82011682018060405250810190611b8291906134f6565b60015b611c07573d8060008114611bb5576040519150601f19603f3d011682016040523d82523d6000602084013e611bba565b606091505b506000815103611bff576040517f08c379a0000000000000000000000000000000000000000000000000000000008152600401611bf6906132c3565b60405180910390fd5b805181602001fd5b63150b7a0260e01b7bffffffffffffffffffffffffffffffffffffffffffffffffffffffff1916817bffffffffffffffffffffffffffffffffffffffffffffffffffffffff191614915050611c5c565b600190505b949350505050565b600080600090507a184f03e93ff9f4daa797ed6e38ed64bf6a1f0100000000000000008310611cc2577a184f03e93ff9f4daa797ed6e38ed64bf6a1f0100000000000000008381611cb857611cb76132e3565b5b0492506040810190505b6d04ee2d6d415b85acef81000000008310611cff576d04ee2d6d415b85acef81000000008381611cf557611cf46132e3565b5b0492506020810190505b662386f26fc100008310611d2e57662386f26fc100008381611d2457611d236132e3565b5b0492506010810190505b6305f5e1008310611d57576305f5e1008381611d4d57611d4c6132e3565b5b0492506008810190505b6127108310611d7c576127108381611d7257611d716132e3565b5b0492506004810190505b60648310611d9f5760648381611d9557611d946132e3565b5b0492506002810190505b600a8310611dae576001810190505b80915050919050565b611dc18383611e35565b611dce6000848484611add565b611e0d576040517f08c379a0000000000000000000000000000000000000000000000000000000008152600401611e04906132c3565b60405180910390fd5b505050565b6000808273ffffffffffffffffffffffffffffffffffffffff163b119050919050565b600073ffffffffffffffffffffffffffffffffffffffff168273ffffffffffffffffffffffffffffffffffffffff1603611ea4576040517f08c379a0000000000000000000000000000000000000000000000000000000008152600401611e9b9061356f565b60405180910390fd5b611ead8161190d565b15611eed576040517f08c379a0000000000000000000000000000000000000000000000000000000008152600401611ee4906135db565b60405180910390fd5b611efb6000838360016119b1565b611f048161190d565b15611f44576040517f08c379a0000000000000000000000000000000000000000000000000000000008152600401611f3b906135db565b60405180910390fd5b6001600360008473ffffffffffffffffffffffffffffffffffffffff1673ffffffffffffffffffffffffffffffffffffffff16815260200190815260200160002060008282540192505081905550816002600083815260200190815260200160002060006101000a81548173ffffffffffffffffffffffffffffffffffffffff021916908373ffffffffffffffffffffffffffffffffffffffff160217905550808273ffffffffffffffffffffffffffffffffffffffff16600073ffffffffffffffffffffffffffffffffffffffff167fddf252ad1be2c89b69c2b068fc378daa952ba7f163c4a11628f55a4df523b3ef60405160405180910390a461204e600083836001611ad7565b5050565b6000604051905090565b600080fd5b600080fd5b60007fffffffff0000000000000000000000000000000000000000000000000000000082169050919050565b61209b81612066565b81146120a657600080fd5b50565b6000813590506120b881612092565b92915050565b6000602082840312156120d4576120d361205c565b5b60006120e2848285016120a9565b91505092915050565b60008115159050919050565b612100816120eb565b82525050565b600060208201905061211b60008301846120f7565b92915050565b600081519050919050565b600082825260208201905092915050565b60005b8381101561215b578082015181840152602081019050612140565b60008484015250505050565b6000601f19601f8301169050919050565b600061218382612121565b61218d818561212c565b935061219d81856020860161213d565b6121a681612167565b840191505092915050565b600060208201905081810360008301526121cb8184612178565b905092915050565b6000819050919050565b6121e6816121d3565b81146121f157600080fd5b50565b600081359050612203816121dd565b92915050565b60006020828403121561221f5761221e61205c565b5b600061222d848285016121f4565b91505092915050565b600073ffffffffffffffffffffffffffffffffffffffff82169050919050565b600061226182612236565b9050919050565b61227181612256565b82525050565b600060208201905061228c6000830184612268565b92915050565b61229b81612256565b81146122a657600080fd5b50565b6000813590506122b881612292565b92915050565b600080604083850312156122d5576122d461205c565b5b60006122e3858286016122a9565b92505060206122f4858286016121f4565b9150509250929050565b600080fd5b600080fd5b7f4e487b7100000000000000000000000000000000000000000000000000000000600052604160045260246000fd5b61234082612167565b810181811067ffffffffffffffff8211171561235f5761235e612308565b5b80604052505050565b6000612372612052565b905061237e8282612337565b919050565b600067ffffffffffffffff82111561239e5761239d612308565b5b6123a782612167565b9050602081019050919050565b82818337600083830152505050565b60006123d66123d184612383565b612368565b9050828152602081018484840111156123f2576123f1612303565b5b6123fd8482856123b4565b509392505050565b600082601f83011261241a576124196122fe565b5b813561242a8482602086016123c3565b91505092915050565b6000602082840312156124495761244861205c565b5b600082013567ffffffffffffffff81111561246757612466612061565b5b61247384828501612405565b91505092915050565b6000806000606084860312156124955761249461205c565b5b60006124a3868287016122a9565b93505060206124b4868287016122a9565b92505060406124c5868287016121f4565b9150509250925092565b6000602082840312156124e5576124e461205c565b5b60006124f3848285016122a9565b91505092915050565b612505816121d3565b82525050565b600060208201905061252060008301846124fc565b92915050565b600081519050919050565b600082825260208201905092915050565b6000819050602082019050919050565b600082825260208201905092915050565b600061256e82612121565b6125788185612552565b935061258881856020860161213d565b61259181612167565b840191505092915050565b6125a5816121d3565b82525050565b600060ff82169050919050565b6125c1816125ab565b82525050565b600060a08301600083015184820360008601526125e48282612563565b91505060208301516125f9602086018261259c565b50604083015161260c604086018261259c565b50606083015161261f60608601826125b8565b50608083015161263260808601826125b8565b508091505092915050565b600061264983836125c7565b905092915050565b6000602082019050919050565b600061266982612526565b6126738185612531565b93508360208202850161268585612542565b8060005b858110156126c157848403895281516126a2858261263d565b94506126ad83612651565b925060208a01995050600181019050612689565b50829750879550505050505092915050565b600060208201905081810360008301526126ed818461265e565b905092915050565b6126fe816120eb565b811461270957600080fd5b50565b60008135905061271b816126f5565b92915050565b600080604083850312156127385761273761205c565b5b6000612746858286016122a9565b92505060206127578582860161270c565b9150509250929050565b600067ffffffffffffffff82111561277c5761277b612308565b5b61278582612167565b9050602081019050919050565b60006127a56127a084612761565b612368565b9050828152602081018484840111156127c1576127c0612303565b5b6127cc8482856123b4565b509392505050565b600082601f8301126127e9576127e86122fe565b5b81356127f9848260208601612792565b91505092915050565b6000806000806080858703121561281c5761281b61205c565b5b600061282a878288016122a9565b945050602061283b878288016122a9565b935050604061284c878288016121f4565b925050606085013567ffffffffffffffff81111561286d5761286c612061565b5b612879878288016127d4565b91505092959194509250565b6000806040838503121561289c5761289b61205c565b5b60006128aa858286016122a9565b92505060206128bb858286016122a9565b9150509250929050565b7f4e487b7100000000000000000000000000000000000000000000000000000000600052602260045260246000fd5b6000600282049050600182168061290c57607f821691505b60208210810361291f5761291e6128c5565b5b50919050565b7f4552433732313a20617070726f76616c20746f2063757272656e74206f776e6560008201527f7200000000000000000000000000000000000000000000000000000000000000602082015250565b600061298160218361212c565b915061298c82612925565b604082019050919050565b600060208201905081810360008301526129b081612974565b9050919050565b7f4552433732313a20617070726f76652063616c6c6572206973206e6f7420746f60008201527f6b656e206f776e6572206f7220617070726f76656420666f7220616c6c000000602082015250565b6000612a13603d8361212c565b9150612a1e826129b7565b604082019050919050565b60006020820190508181036000830152612a4281612a06565b9050919050565b7f4e6f7420656e6f75676820666565000000000000000000000000000000000000600082015250565b6000612a7f600e8361212c565b9150612a8a82612a49565b602082019050919050565b60006020820190508181036000830152612aae81612a72565b9050919050565b7f4552433732313a2063616c6c6572206973206e6f7420746f6b656e206f776e6560008201527f72206f7220617070726f76656400000000000000000000000000000000000000602082015250565b6000612b11602d8361212c565b9150612b1c82612ab5565b604082019050919050565b60006020820190508181036000830152612b4081612b04565b9050919050565b7f4552433732313a20696e76616c696420746f6b656e2049440000000000000000600082015250565b6000612b7d60188361212c565b9150612b8882612b47565b602082019050919050565b60006020820190508181036000830152612bac81612b70565b9050919050565b7f4552433732313a2061646472657373207a65726f206973206e6f74206120766160008201527f6c6964206f776e65720000000000000000000000000000000000000000000000602082015250565b6000612c0f60298361212c565b9150612c1a82612bb3565b604082019050919050565b60006020820190508181036000830152612c3e81612c02565b9050919050565b600081905092915050565b6000612c5b82612121565b612c658185612c45565b9350612c7581856020860161213d565b80840191505092915050565b6000612c8d8285612c50565b9150612c998284612c50565b91508190509392505050565b7f4f776e61626c653a206e6577206f776e657220697320746865207a65726f206160008201527f6464726573730000000000000000000000000000000000000000000000000000602082015250565b6000612d0160268361212c565b9150612d0c82612ca5565b604082019050919050565b60006020820190508181036000830152612d3081612cf4565b9050919050565b60008190508160005260206000209050919050565b60006020601f8301049050919050565b600082821b905092915050565b600060088302612d997fffffffffffffffffffffffffffffffffffffffffffffffffffffffffffffffff82612d5c565b612da38683612d5c565b95508019841693508086168417925050509392505050565b6000819050919050565b6000612de0612ddb612dd6846121d3565b612dbb565b6121d3565b9050919050565b6000819050919050565b612dfa83612dc5565b612e0e612e0682612de7565b848454612d69565b825550505050565b600090565b612e23612e16565b612e2e818484612df1565b505050565b5b81811015612e5257612e47600082612e1b565b600181019050612e34565b5050565b601f821115612e9757612e6881612d37565b612e7184612d4c565b81016020851015612e80578190505b612e94612e8c85612d4c565b830182612e33565b50505b505050565b600082821c905092915050565b6000612eba60001984600802612e9c565b1980831691505092915050565b6000612ed38383612ea9565b9150826002028217905092915050565b612eec82612121565b67ffffffffffffffff811115612f0557612f04612308565b5b612f0f82546128f4565b612f1a828285612e56565b600060209050601f831160018114612f4d5760008415612f3b578287015190505b612f458582612ec7565b865550612fad565b601f198416612f5b86612d37565b60005b82811015612f8357848901518255600182019150602085019450602081019050612f5e565b86831015612fa05784890151612f9c601f891682612ea9565b8355505b6001600288020188555050505b505050505050565b6000604082019050612fca60008301856124fc565b612fd760208301846124fc565b9392505050565b7f4e487b7100000000000000000000000000000000000000000000000000000000600052601160045260246000fd5b6000613018826121d3565b91507fffffffffffffffffffffffffffffffffffffffffffffffffffffffffffffffff820361304a57613049612fde565b5b600182019050919050565b7f4552433732313a207472616e736665722066726f6d20696e636f72726563742060008201527f6f776e6572000000000000000000000000000000000000000000000000000000602082015250565b60006130b160258361212c565b91506130bc82613055565b604082019050919050565b600060208201905081810360008301526130e0816130a4565b9050919050565b7f4552433732313a207472616e7366657220746f20746865207a65726f2061646460008201527f7265737300000000000000000000000000000000000000000000000000000000602082015250565b600061314360248361212c565b915061314e826130e7565b604082019050919050565b6000602082019050818103600083015261317281613136565b9050919050565b7f4f776e61626c653a2063616c6c6572206973206e6f7420746865206f776e6572600082015250565b60006131af60208361212c565b91506131ba82613179565b602082019050919050565b600060208201905081810360008301526131de816131a2565b9050919050565b7f4552433732313a20617070726f766520746f2063616c6c657200000000000000600082015250565b600061321b60198361212c565b9150613226826131e5565b602082019050919050565b6000602082019050818103600083015261324a8161320e565b9050919050565b7f4552433732313a207472616e7366657220746f206e6f6e20455243373231526560008201527f63656976657220696d706c656d656e7465720000000000000000000000000000602082015250565b60006132ad60328361212c565b91506132b882613251565b604082019050919050565b600060208201905081810360008301526132dc816132a0565b9050919050565b7f4e487b7100000000000000000000000000000000000000000000000000000000600052601260045260246000fd5b6000819050919050565b61332d613328826121d3565b613312565b82525050565b60008160601b9050919050565b600061334b82613333565b9050919050565b600061335d82613340565b9050919050565b61337561337082612256565b613352565b82525050565b6000613387828561331c565b6020820191506133978284613364565b6014820191508190509392505050565b60006133b2826121d3565b91506133bd836121d3565b9250826133cd576133cc6132e3565b5b828206905092915050565b60006133e3826121d3565b91506133ee836121d3565b925082820390508181111561340657613405612fde565b5b92915050565b6000613417826121d3565b9150613422836121d3565b925082820190508082111561343a57613439612fde565b5b92915050565b600081519050919050565b600082825260208201905092915050565b600061346782613440565b613471818561344b565b935061348181856020860161213d565b61348a81612167565b840191505092915050565b60006080820190506134aa6000830187612268565b6134b76020830186612268565b6134c460408301856124fc565b81810360608301526134d6818461345c565b905095945050505050565b6000815190506134f081612092565b92915050565b60006020828403121561350c5761350b61205c565b5b600061351a848285016134e1565b91505092915050565b7f4552433732313a206d696e7420746f20746865207a65726f2061646472657373600082015250565b600061355960208361212c565b915061356482613523565b602082019050919050565b600060208201905081810360008301526135888161354c565b9050919050565b7f4552433732313a20746f6b656e20616c7265616479206d696e74656400000000600082015250565b60006135c5601c8361212c565b91506135d08261358f565b602082019050919050565b600060208201905081810360008301526135f4816135b8565b905091905056fea264697066735822122038f4d4e5308cd096cbfd223465223d18e646d6fada9679bf3e7d72cbb943b10264736f6c63430008110033",
  "immutableReferences": {},
  "source": "// SPDX-License-Identifier: GPL-3.0\n\npragma solidity >=0.7.0 <0.9.0;\n\nimport \"@openzeppelin/contracts/access/Ownable.sol\";\nimport \"@openzeppelin/contracts/token/ERC721/ERC721.sol\";\n\ncontract TamaToken is ERC721, Ownable {\n    constructor(string memory _name, string memory _symbol) \n        ERC721(_name, _symbol)\n    {}\n\n    uint256 COUNTER = 1;\n\n    uint256 fee = 1 ether;\n\n    struct Tama {\n        string name;\n        uint256 id;\n        uint256 dna;\n        uint8 level;\n        uint8 rarity;\n    }\n\n    // Tama[] tamas;\n    mapping(address => Tama[]) tamas;\n\n    event NewTamaEvent(address indexed owner, uint256 id, uint256 dna);\n\n    \n    // Creation \n    function _createTama(string memory _name) internal {\n        uint256 randomDna = _generateNumber(10**16);\n        Tama memory newTama = Tama(_name, COUNTER, randomDna, 1, 1);\n        // tamas.push(newTama);\n        tamas[msg.sender].push(newTama);\n        _safeMint(msg.sender, COUNTER);\n        emit NewTamaEvent(msg.sender, COUNTER, randomDna);\n        COUNTER++;\n    }\n\n    function createRandomTama(string memory _name) public payable {\n        require(msg.value >= fee, \"Not enough fee\");\n        _createTama(_name);\n    }\n\n\n    // Getters\n    // function getTamas() \n    // public view returns(Tama[] memory) {\n    //     return tamas;\n    // }\n\n    function getOwnerTamas(address _owner) \n    public view returns(Tama[] memory) {\n         return tamas[_owner];\n        // Tama[] memory result = new Tama[](balanceOf(_owner));\n        // uint256 counter = 0;\n        \n        // for(uint256 i = 0; i < tamas.length; i++) {\n        //     if(ownerOf(i) == _owner ) {\n        //         result[counter] = tamas[i];\n        //         counter++;\n        //     }\n        // }\n\n        // return result;\n    }\n\n\n    // Helpers\n    function _generateNumber(uint256 _mod) internal view returns(uint256) {\n        uint256 randomNumber = uint256(keccak256(abi.encodePacked(block.timestamp, msg.sender)));\n        return randomNumber % _mod;\n    }\n\n    function updateFee(uint256 _fee) external onlyOwner() {\n        fee = _fee;\n    }\n\n    function withdraw() external payable onlyOwner() {\n        address payable _owner = payable(owner());\n        _owner.transfer(address(this).balance);\n    }\n}",
  "sourcePath": "C:\\development\\tama\\contracts\\TamaToken.sol",
  "compiler": {
    "name": "solc",
    "version": "0.8.17+commit.8df45f5f.Emscripten.clang"
  },
  "schemaVersion": "3.4.11",
  "updatedAt": "2023-01-03T11:21:01.096Z",
  "networkType": "ethereum",
  "devdoc": {
    "kind": "dev",
    "methods": {
      "approve(address,uint256)": {
        "details": "See {IERC721-approve}."
      },
      "balanceOf(address)": {
        "details": "See {IERC721-balanceOf}."
      },
      "getApproved(uint256)": {
        "details": "See {IERC721-getApproved}."
      },
      "isApprovedForAll(address,address)": {
        "details": "See {IERC721-isApprovedForAll}."
      },
      "name()": {
        "details": "See {IERC721Metadata-name}."
      },
      "owner()": {
        "details": "Returns the address of the current owner."
      },
      "ownerOf(uint256)": {
        "details": "See {IERC721-ownerOf}."
      },
      "renounceOwnership()": {
        "details": "Leaves the contract without owner. It will not be possible to call `onlyOwner` functions anymore. Can only be called by the current owner. NOTE: Renouncing ownership will leave the contract without an owner, thereby removing any functionality that is only available to the owner."
      },
      "safeTransferFrom(address,address,uint256)": {
        "details": "See {IERC721-safeTransferFrom}."
      },
      "safeTransferFrom(address,address,uint256,bytes)": {
        "details": "See {IERC721-safeTransferFrom}."
      },
      "setApprovalForAll(address,bool)": {
        "details": "See {IERC721-setApprovalForAll}."
      },
      "supportsInterface(bytes4)": {
        "details": "See {IERC165-supportsInterface}."
      },
      "symbol()": {
        "details": "See {IERC721Metadata-symbol}."
      },
      "tokenURI(uint256)": {
        "details": "See {IERC721Metadata-tokenURI}."
      },
      "transferFrom(address,address,uint256)": {
        "details": "See {IERC721-transferFrom}."
      },
      "transferOwnership(address)": {
        "details": "Transfers ownership of the contract to a new account (`newOwner`). Can only be called by the current owner."
      }
    },
    "version": 1
  },
  "userdoc": {
    "kind": "user",
    "methods": {},
    "version": 1
  }
}