{
  "contractName": "TamaToken",
  "abi": [
    {
      "inputs": [
        {
          "internalType": "string",
          "name": "_name",
          "type": "string"
        },
        {
          "internalType": "string",
          "name": "_symbol",
          "type": "string"
        }
      ],
      "stateMutability": "nonpayable",
      "type": "constructor"
    },
    {
      "anonymous": false,
      "inputs": [
        {
          "indexed": true,
          "internalType": "address",
          "name": "owner",
          "type": "address"
        },
        {
          "indexed": true,
          "internalType": "address",
          "name": "approved",
          "type": "address"
        },
        {
          "indexed": true,
          "internalType": "uint256",
          "name": "tokenId",
          "type": "uint256"
        }
      ],
      "name": "Approval",
      "type": "event"
    },
    {
      "anonymous": false,
      "inputs": [
        {
          "indexed": true,
          "internalType": "address",
          "name": "owner",
          "type": "address"
        },
        {
          "indexed": true,
          "internalType": "address",
          "name": "operator",
          "type": "address"
        },
        {
          "indexed": false,
          "internalType": "bool",
          "name": "approved",
          "type": "bool"
        }
      ],
      "name": "ApprovalForAll",
      "type": "event"
    },
    {
      "anonymous": false,
      "inputs": [
        {
          "indexed": true,
          "internalType": "address",
          "name": "owner",
          "type": "address"
        },
        {
          "indexed": false,
          "internalType": "uint256",
          "name": "id",
          "type": "uint256"
        },
        {
          "indexed": false,
          "internalType": "uint256",
          "name": "dna",
          "type": "uint256"
        }
      ],
      "name": "NewTamaEvent",
      "type": "event"
    },
    {
      "anonymous": false,
      "inputs": [
        {
          "indexed": true,
          "internalType": "address",
          "name": "previousOwner",
          "type": "address"
        },
        {
          "indexed": true,
          "internalType": "address",
          "name": "newOwner",
          "type": "address"
        }
      ],
      "name": "OwnershipTransferred",
      "type": "event"
    },
    {
      "anonymous": false,
      "inputs": [
        {
          "indexed": true,
          "internalType": "address",
          "name": "from",
          "type": "address"
        },
        {
          "indexed": true,
          "internalType": "address",
          "name": "to",
          "type": "address"
        },
        {
          "indexed": true,
          "internalType": "uint256",
          "name": "tokenId",
          "type": "uint256"
        }
      ],
      "name": "Transfer",
      "type": "event"
    },
    {
      "inputs": [
        {
          "internalType": "address",
          "name": "to",
          "type": "address"
        },
        {
          "internalType": "uint256",
          "name": "tokenId",
          "type": "uint256"
        }
      ],
      "name": "approve",
      "outputs": [],
      "stateMutability": "nonpayable",
      "type": "function"
    },
    {
      "inputs": [
        {
          "internalType": "address",
          "name": "owner",
          "type": "address"
        }
      ],
      "name": "balanceOf",
      "outputs": [
        {
          "internalType": "uint256",
          "name": "",
          "type": "uint256"
        }
      ],
      "stateMutability": "view",
      "type": "function",
      "constant": true
    },
    {
      "inputs": [
        {
          "internalType": "uint256",
          "name": "tokenId",
          "type": "uint256"
        }
      ],
      "name": "getApproved",
      "outputs": [
        {
          "internalType": "address",
          "name": "",
          "type": "address"
        }
      ],
      "stateMutability": "view",
      "type": "function",
      "constant": true
    },
    {
      "inputs": [
        {
          "internalType": "address",
          "name": "owner",
          "type": "address"
        },
        {
          "internalType": "address",
          "name": "operator",
          "type": "address"
        }
      ],
      "name": "isApprovedForAll",
      "outputs": [
        {
          "internalType": "bool",
          "name": "",
          "type": "bool"
        }
      ],
      "stateMutability": "view",
      "type": "function",
      "constant": true
    },
    {
      "inputs": [],
      "name": "name",
      "outputs": [
        {
          "internalType": "string",
          "name": "",
          "type": "string"
        }
      ],
      "stateMutability": "view",
      "type": "function",
      "constant": true
    },
    {
      "inputs": [],
      "name": "owner",
      "outputs": [
        {
          "internalType": "address",
          "name": "",
          "type": "address"
        }
      ],
      "stateMutability": "view",
      "type": "function",
      "constant": true
    },
    {
      "inputs": [
        {
          "internalType": "uint256",
          "name": "tokenId",
          "type": "uint256"
        }
      ],
      "name": "ownerOf",
      "outputs": [
        {
          "internalType": "address",
          "name": "",
          "type": "address"
        }
      ],
      "stateMutability": "view",
      "type": "function",
      "constant": true
    },
    {
      "inputs": [],
      "name": "renounceOwnership",
      "outputs": [],
      "stateMutability": "nonpayable",
      "type": "function"
    },
    {
      "inputs": [
        {
          "internalType": "address",
          "name": "from",
          "type": "address"
        },
        {
          "internalType": "address",
          "name": "to",
          "type": "address"
        },
        {
          "internalType": "uint256",
          "name": "tokenId",
          "type": "uint256"
        }
      ],
      "name": "safeTransferFrom",
      "outputs": [],
      "stateMutability": "nonpayable",
      "type": "function"
    },
    {
      "inputs": [
        {
          "internalType": "address",
          "name": "from",
          "type": "address"
        },
        {
          "internalType": "address",
          "name": "to",
          "type": "address"
        },
        {
          "internalType": "uint256",
          "name": "tokenId",
          "type": "uint256"
        },
        {
          "internalType": "bytes",
          "name": "data",
          "type": "bytes"
        }
      ],
      "name": "safeTransferFrom",
      "outputs": [],
      "stateMutability": "nonpayable",
      "type": "function"
    },
    {
      "inputs": [
        {
          "internalType": "address",
          "name": "operator",
          "type": "address"
        },
        {
          "internalType": "bool",
          "name": "approved",
          "type": "bool"
        }
      ],
      "name": "setApprovalForAll",
      "outputs": [],
      "stateMutability": "nonpayable",
      "type": "function"
    },
    {
      "inputs": [
        {
          "internalType": "bytes4",
          "name": "interfaceId",
          "type": "bytes4"
        }
      ],
      "name": "supportsInterface",
      "outputs": [
        {
          "internalType": "bool",
          "name": "",
          "type": "bool"
        }
      ],
      "stateMutability": "view",
      "type": "function",
      "constant": true
    },
    {
      "inputs": [],
      "name": "symbol",
      "outputs": [
        {
          "internalType": "string",
          "name": "",
          "type": "string"
        }
      ],
      "stateMutability": "view",
      "type": "function",
      "constant": true
    },
    {
      "inputs": [
        {
          "internalType": "uint256",
          "name": "tokenId",
          "type": "uint256"
        }
      ],
      "name": "tokenURI",
      "outputs": [
        {
          "internalType": "string",
          "name": "",
          "type": "string"
        }
      ],
      "stateMutability": "view",
      "type": "function",
      "constant": true
    },
    {
      "inputs": [
        {
          "internalType": "address",
          "name": "from",
          "type": "address"
        },
        {
          "internalType": "address",
          "name": "to",
          "type": "address"
        },
        {
          "internalType": "uint256",
          "name": "tokenId",
          "type": "uint256"
        }
      ],
      "name": "transferFrom",
      "outputs": [],
      "stateMutability": "nonpayable",
      "type": "function"
    },
    {
      "inputs": [
        {
          "internalType": "address",
          "name": "newOwner",
          "type": "address"
        }
      ],
      "name": "transferOwnership",
      "outputs": [],
      "stateMutability": "nonpayable",
      "type": "function"
    },
    {
      "inputs": [
        {
          "internalType": "string",
          "name": "_name",
          "type": "string"
        }
      ],
      "name": "createRandomTama",
      "outputs": [],
      "stateMutability": "payable",
      "type": "function",
      "payable": true
    },
    {
      "inputs": [],
      "name": "getTamas",
      "outputs": [
        {
          "components": [
            {
              "internalType": "string",
              "name": "name",
              "type": "string"
            },
            {
              "internalType": "uint256",
              "name": "id",
              "type": "uint256"
            },
            {
              "internalType": "uint256",
              "name": "dna",
              "type": "uint256"
            },
            {
              "internalType": "uint8",
              "name": "level",
              "type": "uint8"
            },
            {
              "internalType": "uint8",
              "name": "rarity",
              "type": "uint8"
            }
          ],
          "internalType": "struct TamaToken.Tama[]",
          "name": "",
          "type": "tuple[]"
        }
      ],
      "stateMutability": "view",
      "type": "function",
      "constant": true
    },
    {
      "inputs": [
        {
          "internalType": "address",
          "name": "_owner",
          "type": "address"
        }
      ],
      "name": "getOwnerTamas",
      "outputs": [
        {
          "components": [
            {
              "internalType": "string",
              "name": "name",
              "type": "string"
            },
            {
              "internalType": "uint256",
              "name": "id",
              "type": "uint256"
            },
            {
              "internalType": "uint256",
              "name": "dna",
              "type": "uint256"
            },
            {
              "internalType": "uint8",
              "name": "level",
              "type": "uint8"
            },
            {
              "internalType": "uint8",
              "name": "rarity",
              "type": "uint8"
            }
          ],
          "internalType": "struct TamaToken.Tama[]",
          "name": "",
          "type": "tuple[]"
        }
      ],
      "stateMutability": "view",
      "type": "function",
      "constant": true
    },
    {
      "inputs": [
        {
          "internalType": "uint256",
          "name": "_fee",
          "type": "uint256"
        }
      ],
      "name": "updateFee",
      "outputs": [],
      "stateMutability": "nonpayable",
      "type": "function"
    },
    {
      "inputs": [],
      "name": "withdraw",
      "outputs": [],
      "stateMutability": "payable",
      "type": "function",
      "payable": true
    },
    {
      "inputs": [
        {
          "internalType": "uint256",
          "name": "_tamaId",
          "type": "uint256"
        }
      ],
      "name": "levelUp",
      "outputs": [],
      "stateMutability": "nonpayable",
      "type": "function"
    }
  ],
  "bytecode": "0x6080604052662386f26fc100006008553480156200001c57600080fd5b506040516200401e3803806200401e8339818101604052810190620000429190620002f3565b81818160009081620000559190620005c3565b508060019081620000679190620005c3565b5050506200008a6200007e6200009260201b60201c565b6200009a60201b60201c565b5050620006aa565b600033905090565b6000600660009054906101000a900473ffffffffffffffffffffffffffffffffffffffff16905081600660006101000a81548173ffffffffffffffffffffffffffffffffffffffff021916908373ffffffffffffffffffffffffffffffffffffffff1602179055508173ffffffffffffffffffffffffffffffffffffffff168173ffffffffffffffffffffffffffffffffffffffff167f8be0079c531659141344cd1fd0a4f28419497f9722a3daafe3b4186f6b6457e060405160405180910390a35050565b6000604051905090565b600080fd5b600080fd5b600080fd5b600080fd5b6000601f19601f8301169050919050565b7f4e487b7100000000000000000000000000000000000000000000000000000000600052604160045260246000fd5b620001c9826200017e565b810181811067ffffffffffffffff82111715620001eb57620001ea6200018f565b5b80604052505050565b60006200020062000160565b90506200020e8282620001be565b919050565b600067ffffffffffffffff8211156200023157620002306200018f565b5b6200023c826200017e565b9050602081019050919050565b60005b83811015620002695780820151818401526020810190506200024c565b60008484015250505050565b60006200028c620002868462000213565b620001f4565b905082815260208101848484011115620002ab57620002aa62000179565b5b620002b884828562000249565b509392505050565b600082601f830112620002d857620002d762000174565b5b8151620002ea84826020860162000275565b91505092915050565b600080604083850312156200030d576200030c6200016a565b5b600083015167ffffffffffffffff8111156200032e576200032d6200016f565b5b6200033c85828601620002c0565b925050602083015167ffffffffffffffff81111562000360576200035f6200016f565b5b6200036e85828601620002c0565b9150509250929050565b600081519050919050565b7f4e487b7100000000000000000000000000000000000000000000000000000000600052602260045260246000fd5b60006002820490506001821680620003cb57607f821691505b602082108103620003e157620003e062000383565b5b50919050565b60008190508160005260206000209050919050565b60006020601f8301049050919050565b600082821b905092915050565b6000600883026200044b7fffffffffffffffffffffffffffffffffffffffffffffffffffffffffffffffff826200040c565b6200045786836200040c565b95508019841693508086168417925050509392505050565b6000819050919050565b6000819050919050565b6000620004a46200049e62000498846200046f565b62000479565b6200046f565b9050919050565b6000819050919050565b620004c08362000483565b620004d8620004cf82620004ab565b84845462000419565b825550505050565b600090565b620004ef620004e0565b620004fc818484620004b5565b505050565b5b81811015620005245762000518600082620004e5565b60018101905062000502565b5050565b601f82111562000573576200053d81620003e7565b6200054884620003fc565b8101602085101562000558578190505b620005706200056785620003fc565b83018262000501565b50505b505050565b600082821c905092915050565b6000620005986000198460080262000578565b1980831691505092915050565b6000620005b3838362000585565b9150826002028217905092915050565b620005ce8262000378565b67ffffffffffffffff811115620005ea57620005e96200018f565b5b620005f68254620003b2565b6200060382828562000528565b600060209050601f8311600181146200063b576000841562000626578287015190505b620006328582620005a5565b865550620006a2565b601f1984166200064b86620003e7565b60005b8281101562000675578489015182556001820191506020850194506020810190506200064e565b8683101562000695578489015162000691601f89168262000585565b8355505b6001600288020188555050505b505050505050565b61396480620006ba6000396000f3fe6080604052600436106101355760003560e01c806370a08231116100ab57806395d89b411161006f57806395d89b41146103f6578063a22cb46514610421578063b88d4fde1461044a578063c87b56dd14610473578063e985e9c5146104b0578063f2fde38b146104ed57610135565b806370a0823114610311578063715018a61461034e5780637973e364146103655780638da5cb5b146103a25780639012c4a8146103cd57610135565b80630d542a08116100fd5780630d542a081461023157806323b872dd1461024d5780633ccfd60b1461027657806342842e0e14610280578063479a585a146102a95780636352211e146102d457610135565b806301ffc9a71461013a57806306fdde0314610177578063081812fc146101a2578063095ea7b3146101df5780630ce90ec214610208575b600080fd5b34801561014657600080fd5b50610161600480360381019061015c9190612399565b610516565b60405161016e91906123e1565b60405180910390f35b34801561018357600080fd5b5061018c6105f8565b604051610199919061248c565b60405180910390f35b3480156101ae57600080fd5b506101c960048036038101906101c491906124e4565b61068a565b6040516101d69190612552565b60405180910390f35b3480156101eb57600080fd5b5061020660048036038101906102019190612599565b6106d0565b005b34801561021457600080fd5b5061022f600480360381019061022a91906124e4565b6107e7565b005b61024b6004803603810190610246919061270e565b61088b565b005b34801561025957600080fd5b50610274600480360381019061026f9190612757565b6108dc565b005b61027e61093c565b005b34801561028c57600080fd5b506102a760048036038101906102a29190612757565b61099a565b005b3480156102b557600080fd5b506102be6109ba565b6040516102cb9190612957565b60405180910390f35b3480156102e057600080fd5b506102fb60048036038101906102f691906124e4565b610af9565b6040516103089190612552565b60405180910390f35b34801561031d57600080fd5b5061033860048036038101906103339190612979565b610b7f565b60405161034591906129b5565b60405180910390f35b34801561035a57600080fd5b50610363610c36565b005b34801561037157600080fd5b5061038c60048036038101906103879190612979565b610c4a565b6040516103999190612957565b60405180910390f35b3480156103ae57600080fd5b506103b7610e50565b6040516103c49190612552565b60405180910390f35b3480156103d957600080fd5b506103f460048036038101906103ef91906124e4565b610e7a565b005b34801561040257600080fd5b5061040b610e8c565b604051610418919061248c565b60405180910390f35b34801561042d57600080fd5b50610448600480360381019061044391906129fc565b610f1e565b005b34801561045657600080fd5b50610471600480360381019061046c9190612add565b610f34565b005b34801561047f57600080fd5b5061049a600480360381019061049591906124e4565b610f96565b6040516104a7919061248c565b60405180910390f35b3480156104bc57600080fd5b506104d760048036038101906104d29190612b60565b610ffe565b6040516104e491906123e1565b60405180910390f35b3480156104f957600080fd5b50610514600480360381019061050f9190612979565b611092565b005b60007f80ac58cd000000000000000000000000000000000000000000000000000000007bffffffffffffffffffffffffffffffffffffffffffffffffffffffff1916827bffffffffffffffffffffffffffffffffffffffffffffffffffffffff191614806105e157507f5b5e139f000000000000000000000000000000000000000000000000000000007bffffffffffffffffffffffffffffffffffffffffffffffffffffffff1916827bffffffffffffffffffffffffffffffffffffffffffffffffffffffff1916145b806105f157506105f082611115565b5b9050919050565b60606000805461060790612bcf565b80601f016020809104026020016040519081016040528092919081815260200182805461063390612bcf565b80156106805780601f1061065557610100808354040283529160200191610680565b820191906000526020600020905b81548152906001019060200180831161066357829003601f168201915b5050505050905090565b60006106958261117f565b6004600083815260200190815260200160002060009054906101000a900473ffffffffffffffffffffffffffffffffffffffff169050919050565b60006106db82610af9565b90508073ffffffffffffffffffffffffffffffffffffffff168373ffffffffffffffffffffffffffffffffffffffff160361074b576040517f08c379a000000000000000000000000000000000000000000000000000000000815260040161074290612c72565b60405180910390fd5b8073ffffffffffffffffffffffffffffffffffffffff1661076a6111ca565b73ffffffffffffffffffffffffffffffffffffffff1614806107995750610798816107936111ca565b610ffe565b5b6107d8576040517f08c379a00000000000000000000000000000000000000000000000000000000081526004016107cf90612d04565b60405180910390fd5b6107e283836111d2565b505050565b3373ffffffffffffffffffffffffffffffffffffffff1661080782610af9565b73ffffffffffffffffffffffffffffffffffffffff161461082757600080fd5b60006009828154811061083d5761083c612d24565b5b9060005260206000209060040201905080600301600081819054906101000a900460ff168092919061086e90612d82565b91906101000a81548160ff021916908360ff160217905550505050565b6008543410156108d0576040517f08c379a00000000000000000000000000000000000000000000000000000000081526004016108c790612df7565b60405180910390fd5b6108d98161128b565b50565b6108ed6108e76111ca565b826113f7565b61092c576040517f08c379a000000000000000000000000000000000000000000000000000000000815260040161092390612e89565b60405180910390fd5b61093783838361148c565b505050565b610944611785565b600061094e610e50565b90508073ffffffffffffffffffffffffffffffffffffffff166108fc479081150290604051600060405180830381858888f19350505050158015610996573d6000803e3d6000fd5b5050565b6109b583838360405180602001604052806000815250610f34565b505050565b60606009805480602002602001604051908101604052809291908181526020016000905b82821015610af057838290600052602060002090600402016040518060a0016040529081600082018054610a1190612bcf565b80601f0160208091040260200160405190810160405280929190818152602001828054610a3d90612bcf565b8015610a8a5780601f10610a5f57610100808354040283529160200191610a8a565b820191906000526020600020905b815481529060010190602001808311610a6d57829003601f168201915b5050505050815260200160018201548152602001600282015481526020016003820160009054906101000a900460ff1660ff1660ff1681526020016003820160019054906101000a900460ff1660ff1660ff1681525050815260200190600101906109de565b50505050905090565b600080610b0583611803565b9050600073ffffffffffffffffffffffffffffffffffffffff168173ffffffffffffffffffffffffffffffffffffffff1603610b76576040517f08c379a0000000000000000000000000000000000000000000000000000000008152600401610b6d90612ef5565b60405180910390fd5b80915050919050565b60008073ffffffffffffffffffffffffffffffffffffffff168273ffffffffffffffffffffffffffffffffffffffff1603610bef576040517f08c379a0000000000000000000000000000000000000000000000000000000008152600401610be690612f87565b60405180910390fd5b600360008373ffffffffffffffffffffffffffffffffffffffff1673ffffffffffffffffffffffffffffffffffffffff168152602001908152602001600020549050919050565b610c3e611785565b610c486000611840565b565b60606000610c5783610b7f565b67ffffffffffffffff811115610c7057610c6f6125e3565b5b604051908082528060200260200182016040528015610ca957816020015b610c966122f8565b815260200190600190039081610c8e5790505b5090506000805b600980549050811015610e45578473ffffffffffffffffffffffffffffffffffffffff16610cdd82610af9565b73ffffffffffffffffffffffffffffffffffffffff1603610e325760098181548110610d0c57610d0b612d24565b5b90600052602060002090600402016040518060a0016040529081600082018054610d3590612bcf565b80601f0160208091040260200160405190810160405280929190818152602001828054610d6190612bcf565b8015610dae5780601f10610d8357610100808354040283529160200191610dae565b820191906000526020600020905b815481529060010190602001808311610d9157829003601f168201915b5050505050815260200160018201548152602001600282015481526020016003820160009054906101000a900460ff1660ff1660ff1681526020016003820160019054906101000a900460ff1660ff1660ff1681525050838381518110610e1857610e17612d24565b5b60200260200101819052508180610e2e90612fa7565b9250505b8080610e3d90612fa7565b915050610cb0565b508192505050919050565b6000600660009054906101000a900473ffffffffffffffffffffffffffffffffffffffff16905090565b610e82611785565b8060088190555050565b606060018054610e9b90612bcf565b80601f0160208091040260200160405190810160405280929190818152602001828054610ec790612bcf565b8015610f145780601f10610ee957610100808354040283529160200191610f14565b820191906000526020600020905b815481529060010190602001808311610ef757829003601f168201915b5050505050905090565b610f30610f296111ca565b8383611906565b5050565b610f45610f3f6111ca565b836113f7565b610f84576040517f08c379a0000000000000000000000000000000000000000000000000000000008152600401610f7b90612e89565b60405180910390fd5b610f9084848484611a72565b50505050565b6060610fa18261117f565b6000610fab611ace565b90506000815111610fcb5760405180602001604052806000815250610ff6565b80610fd584611ae5565b604051602001610fe692919061302b565b6040516020818303038152906040525b915050919050565b6000600560008473ffffffffffffffffffffffffffffffffffffffff1673ffffffffffffffffffffffffffffffffffffffff16815260200190815260200160002060008373ffffffffffffffffffffffffffffffffffffffff1673ffffffffffffffffffffffffffffffffffffffff16815260200190815260200160002060009054906101000a900460ff16905092915050565b61109a611785565b600073ffffffffffffffffffffffffffffffffffffffff168173ffffffffffffffffffffffffffffffffffffffff1603611109576040517f08c379a0000000000000000000000000000000000000000000000000000000008152600401611100906130c1565b60405180910390fd5b61111281611840565b50565b60007f01ffc9a7000000000000000000000000000000000000000000000000000000007bffffffffffffffffffffffffffffffffffffffffffffffffffffffff1916827bffffffffffffffffffffffffffffffffffffffffffffffffffffffff1916149050919050565b61118881611bb3565b6111c7576040517f08c379a00000000000000000000000000000000000000000000000000000000081526004016111be90612ef5565b60405180910390fd5b50565b600033905090565b816004600083815260200190815260200160002060006101000a81548173ffffffffffffffffffffffffffffffffffffffff021916908373ffffffffffffffffffffffffffffffffffffffff160217905550808273ffffffffffffffffffffffffffffffffffffffff1661124583610af9565b73ffffffffffffffffffffffffffffffffffffffff167f8c5be1e5ebec7d5bd14f71427d1e84f3dd0314c0f7b2291e5b200ac8c7c3b92560405160405180910390a45050565b600061129d662386f26fc10000611bf4565b905060006112ab6064611bf4565b905060006040518060a001604052808581526020016007548152602001848152602001600160ff1681526020018360ff16815250905060098190806001815401808255809150506001900390600052602060002090600402016000909190919091506000820151816000019081611322919061328d565b50602082015181600101556040820151816002015560608201518160030160006101000a81548160ff021916908360ff16021790555060808201518160030160016101000a81548160ff021916908360ff160217905550505061138733600754611c39565b3373ffffffffffffffffffffffffffffffffffffffff167faa53bee18524d71478838ab6ea8cb1897202e7df3abf3b4219b971f0d6a2fafa600754856040516113d192919061335f565b60405180910390a2600760008154809291906113ec90612fa7565b919050555050505050565b60008061140383610af9565b90508073ffffffffffffffffffffffffffffffffffffffff168473ffffffffffffffffffffffffffffffffffffffff16148061144557506114448185610ffe565b5b8061148357508373ffffffffffffffffffffffffffffffffffffffff1661146b8461068a565b73ffffffffffffffffffffffffffffffffffffffff16145b91505092915050565b8273ffffffffffffffffffffffffffffffffffffffff166114ac82610af9565b73ffffffffffffffffffffffffffffffffffffffff1614611502576040517f08c379a00000000000000000000000000000000000000000000000000000000081526004016114f9906133fa565b60405180910390fd5b600073ffffffffffffffffffffffffffffffffffffffff168273ffffffffffffffffffffffffffffffffffffffff1603611571576040517f08c379a00000000000000000000000000000000000000000000000000000000081526004016115689061348c565b60405180910390fd5b61157e8383836001611c57565b8273ffffffffffffffffffffffffffffffffffffffff1661159e82610af9565b73ffffffffffffffffffffffffffffffffffffffff16146115f4576040517f08c379a00000000000000000000000000000000000000000000000000000000081526004016115eb906133fa565b60405180910390fd5b6004600082815260200190815260200160002060006101000a81549073ffffffffffffffffffffffffffffffffffffffff02191690556001600360008573ffffffffffffffffffffffffffffffffffffffff1673ffffffffffffffffffffffffffffffffffffffff168152602001908152602001600020600082825403925050819055506001600360008473ffffffffffffffffffffffffffffffffffffffff1673ffffffffffffffffffffffffffffffffffffffff16815260200190815260200160002060008282540192505081905550816002600083815260200190815260200160002060006101000a81548173ffffffffffffffffffffffffffffffffffffffff021916908373ffffffffffffffffffffffffffffffffffffffff160217905550808273ffffffffffffffffffffffffffffffffffffffff168473ffffffffffffffffffffffffffffffffffffffff167fddf252ad1be2c89b69c2b068fc378daa952ba7f163c4a11628f55a4df523b3ef60405160405180910390a46117808383836001611d7d565b505050565b61178d6111ca565b73ffffffffffffffffffffffffffffffffffffffff166117ab610e50565b73ffffffffffffffffffffffffffffffffffffffff1614611801576040517f08c379a00000000000000000000000000000000000000000000000000000000081526004016117f8906134f8565b60405180910390fd5b565b60006002600083815260200190815260200160002060009054906101000a900473ffffffffffffffffffffffffffffffffffffffff169050919050565b6000600660009054906101000a900473ffffffffffffffffffffffffffffffffffffffff16905081600660006101000a81548173ffffffffffffffffffffffffffffffffffffffff021916908373ffffffffffffffffffffffffffffffffffffffff1602179055508173ffffffffffffffffffffffffffffffffffffffff168173ffffffffffffffffffffffffffffffffffffffff167f8be0079c531659141344cd1fd0a4f28419497f9722a3daafe3b4186f6b6457e060405160405180910390a35050565b8173ffffffffffffffffffffffffffffffffffffffff168373ffffffffffffffffffffffffffffffffffffffff1603611974576040517f08c379a000000000000000000000000000000000000000000000000000000000815260040161196b90613564565b60405180910390fd5b80600560008573ffffffffffffffffffffffffffffffffffffffff1673ffffffffffffffffffffffffffffffffffffffff16815260200190815260200160002060008473ffffffffffffffffffffffffffffffffffffffff1673ffffffffffffffffffffffffffffffffffffffff16815260200190815260200160002060006101000a81548160ff0219169083151502179055508173ffffffffffffffffffffffffffffffffffffffff168373ffffffffffffffffffffffffffffffffffffffff167f17307eab39ab6107e8899845ad3d59bd9653f200f220920489ca2b5937696c3183604051611a6591906123e1565b60405180910390a3505050565b611a7d84848461148c565b611a8984848484611d83565b611ac8576040517f08c379a0000000000000000000000000000000000000000000000000000000008152600401611abf906135f6565b60405180910390fd5b50505050565b606060405180602001604052806000815250905090565b606060006001611af484611f0a565b01905060008167ffffffffffffffff811115611b1357611b126125e3565b5b6040519080825280601f01601f191660200182016040528015611b455781602001600182028036833780820191505090505b509050600082602001820190505b600115611ba8578080600190039150507f3031323334353637383961626364656600000000000000000000000000000000600a86061a8153600a8581611b9c57611b9b613616565b5b04945060008503611b53575b819350505050919050565b60008073ffffffffffffffffffffffffffffffffffffffff16611bd583611803565b73ffffffffffffffffffffffffffffffffffffffff1614159050919050565b6000804233604051602001611c0a9291906136ae565b6040516020818303038152906040528051906020012060001c90508281611c3191906136da565b915050919050565b611c5382826040518060200160405280600081525061205d565b5050565b6001811115611d7757600073ffffffffffffffffffffffffffffffffffffffff168473ffffffffffffffffffffffffffffffffffffffff1614611ceb5780600360008673ffffffffffffffffffffffffffffffffffffffff1673ffffffffffffffffffffffffffffffffffffffff1681526020019081526020016000206000828254611ce3919061370b565b925050819055505b600073ffffffffffffffffffffffffffffffffffffffff168373ffffffffffffffffffffffffffffffffffffffff1614611d765780600360008573ffffffffffffffffffffffffffffffffffffffff1673ffffffffffffffffffffffffffffffffffffffff1681526020019081526020016000206000828254611d6e919061373f565b925050819055505b5b50505050565b50505050565b6000611da48473ffffffffffffffffffffffffffffffffffffffff166120b8565b15611efd578373ffffffffffffffffffffffffffffffffffffffff1663150b7a02611dcd6111ca565b8786866040518563ffffffff1660e01b8152600401611def94939291906137c8565b6020604051808303816000875af1925050508015611e2b57506040513d601f19601f82011682018060405250810190611e289190613829565b60015b611ead573d8060008114611e5b576040519150601f19603f3d011682016040523d82523d6000602084013e611e60565b606091505b506000815103611ea5576040517f08c379a0000000000000000000000000000000000000000000000000000000008152600401611e9c906135f6565b60405180910390fd5b805181602001fd5b63150b7a0260e01b7bffffffffffffffffffffffffffffffffffffffffffffffffffffffff1916817bffffffffffffffffffffffffffffffffffffffffffffffffffffffff191614915050611f02565b600190505b949350505050565b600080600090507a184f03e93ff9f4daa797ed6e38ed64bf6a1f0100000000000000008310611f68577a184f03e93ff9f4daa797ed6e38ed64bf6a1f0100000000000000008381611f5e57611f5d613616565b5b0492506040810190505b6d04ee2d6d415b85acef81000000008310611fa5576d04ee2d6d415b85acef81000000008381611f9b57611f9a613616565b5b0492506020810190505b662386f26fc100008310611fd457662386f26fc100008381611fca57611fc9613616565b5b0492506010810190505b6305f5e1008310611ffd576305f5e1008381611ff357611ff2613616565b5b0492506008810190505b612710831061202257612710838161201857612017613616565b5b0492506004810190505b60648310612045576064838161203b5761203a613616565b5b0492506002810190505b600a8310612054576001810190505b80915050919050565b61206783836120db565b6120746000848484611d83565b6120b3576040517f08c379a00000000000000000000000000000000000000000000000000000000081526004016120aa906135f6565b60405180910390fd5b505050565b6000808273ffffffffffffffffffffffffffffffffffffffff163b119050919050565b600073ffffffffffffffffffffffffffffffffffffffff168273ffffffffffffffffffffffffffffffffffffffff160361214a576040517f08c379a0000000000000000000000000000000000000000000000000000000008152600401612141906138a2565b60405180910390fd5b61215381611bb3565b15612193576040517f08c379a000000000000000000000000000000000000000000000000000000000815260040161218a9061390e565b60405180910390fd5b6121a1600083836001611c57565b6121aa81611bb3565b156121ea576040517f08c379a00000000000000000000000000000000000000000000000000000000081526004016121e19061390e565b60405180910390fd5b6001600360008473ffffffffffffffffffffffffffffffffffffffff1673ffffffffffffffffffffffffffffffffffffffff16815260200190815260200160002060008282540192505081905550816002600083815260200190815260200160002060006101000a81548173ffffffffffffffffffffffffffffffffffffffff021916908373ffffffffffffffffffffffffffffffffffffffff160217905550808273ffffffffffffffffffffffffffffffffffffffff16600073ffffffffffffffffffffffffffffffffffffffff167fddf252ad1be2c89b69c2b068fc378daa952ba7f163c4a11628f55a4df523b3ef60405160405180910390a46122f4600083836001611d7d565b5050565b6040518060a00160405280606081526020016000815260200160008152602001600060ff168152602001600060ff1681525090565b6000604051905090565b600080fd5b600080fd5b60007fffffffff0000000000000000000000000000000000000000000000000000000082169050919050565b61237681612341565b811461238157600080fd5b50565b6000813590506123938161236d565b92915050565b6000602082840312156123af576123ae612337565b5b60006123bd84828501612384565b91505092915050565b60008115159050919050565b6123db816123c6565b82525050565b60006020820190506123f660008301846123d2565b92915050565b600081519050919050565b600082825260208201905092915050565b60005b8381101561243657808201518184015260208101905061241b565b60008484015250505050565b6000601f19601f8301169050919050565b600061245e826123fc565b6124688185612407565b9350612478818560208601612418565b61248181612442565b840191505092915050565b600060208201905081810360008301526124a68184612453565b905092915050565b6000819050919050565b6124c1816124ae565b81146124cc57600080fd5b50565b6000813590506124de816124b8565b92915050565b6000602082840312156124fa576124f9612337565b5b6000612508848285016124cf565b91505092915050565b600073ffffffffffffffffffffffffffffffffffffffff82169050919050565b600061253c82612511565b9050919050565b61254c81612531565b82525050565b60006020820190506125676000830184612543565b92915050565b61257681612531565b811461258157600080fd5b50565b6000813590506125938161256d565b92915050565b600080604083850312156125b0576125af612337565b5b60006125be85828601612584565b92505060206125cf858286016124cf565b9150509250929050565b600080fd5b600080fd5b7f4e487b7100000000000000000000000000000000000000000000000000000000600052604160045260246000fd5b61261b82612442565b810181811067ffffffffffffffff8211171561263a576126396125e3565b5b80604052505050565b600061264d61232d565b90506126598282612612565b919050565b600067ffffffffffffffff821115612679576126786125e3565b5b61268282612442565b9050602081019050919050565b82818337600083830152505050565b60006126b16126ac8461265e565b612643565b9050828152602081018484840111156126cd576126cc6125de565b5b6126d884828561268f565b509392505050565b600082601f8301126126f5576126f46125d9565b5b813561270584826020860161269e565b91505092915050565b60006020828403121561272457612723612337565b5b600082013567ffffffffffffffff8111156127425761274161233c565b5b61274e848285016126e0565b91505092915050565b6000806000606084860312156127705761276f612337565b5b600061277e86828701612584565b935050602061278f86828701612584565b92505060406127a0868287016124cf565b9150509250925092565b600081519050919050565b600082825260208201905092915050565b6000819050602082019050919050565b600082825260208201905092915050565b60006127f2826123fc565b6127fc81856127d6565b935061280c818560208601612418565b61281581612442565b840191505092915050565b612829816124ae565b82525050565b600060ff82169050919050565b6128458161282f565b82525050565b600060a083016000830151848203600086015261286882826127e7565b915050602083015161287d6020860182612820565b5060408301516128906040860182612820565b5060608301516128a3606086018261283c565b5060808301516128b6608086018261283c565b508091505092915050565b60006128cd838361284b565b905092915050565b6000602082019050919050565b60006128ed826127aa565b6128f781856127b5565b935083602082028501612909856127c6565b8060005b85811015612945578484038952815161292685826128c1565b9450612931836128d5565b925060208a0199505060018101905061290d565b50829750879550505050505092915050565b6000602082019050818103600083015261297181846128e2565b905092915050565b60006020828403121561298f5761298e612337565b5b600061299d84828501612584565b91505092915050565b6129af816124ae565b82525050565b60006020820190506129ca60008301846129a6565b92915050565b6129d9816123c6565b81146129e457600080fd5b50565b6000813590506129f6816129d0565b92915050565b60008060408385031215612a1357612a12612337565b5b6000612a2185828601612584565b9250506020612a32858286016129e7565b9150509250929050565b600067ffffffffffffffff821115612a5757612a566125e3565b5b612a6082612442565b9050602081019050919050565b6000612a80612a7b84612a3c565b612643565b905082815260208101848484011115612a9c57612a9b6125de565b5b612aa784828561268f565b509392505050565b600082601f830112612ac457612ac36125d9565b5b8135612ad4848260208601612a6d565b91505092915050565b60008060008060808587031215612af757612af6612337565b5b6000612b0587828801612584565b9450506020612b1687828801612584565b9350506040612b27878288016124cf565b925050606085013567ffffffffffffffff811115612b4857612b4761233c565b5b612b5487828801612aaf565b91505092959194509250565b60008060408385031215612b7757612b76612337565b5b6000612b8585828601612584565b9250506020612b9685828601612584565b9150509250929050565b7f4e487b7100000000000000000000000000000000000000000000000000000000600052602260045260246000fd5b60006002820490506001821680612be757607f821691505b602082108103612bfa57612bf9612ba0565b5b50919050565b7f4552433732313a20617070726f76616c20746f2063757272656e74206f776e6560008201527f7200000000000000000000000000000000000000000000000000000000000000602082015250565b6000612c5c602183612407565b9150612c6782612c00565b604082019050919050565b60006020820190508181036000830152612c8b81612c4f565b9050919050565b7f4552433732313a20617070726f76652063616c6c6572206973206e6f7420746f60008201527f6b656e206f776e6572206f7220617070726f76656420666f7220616c6c000000602082015250565b6000612cee603d83612407565b9150612cf982612c92565b604082019050919050565b60006020820190508181036000830152612d1d81612ce1565b9050919050565b7f4e487b7100000000000000000000000000000000000000000000000000000000600052603260045260246000fd5b7f4e487b7100000000000000000000000000000000000000000000000000000000600052601160045260246000fd5b6000612d8d8261282f565b915060ff8203612da057612d9f612d53565b5b600182019050919050565b7f4e6f7420656e6f75676820666565000000000000000000000000000000000000600082015250565b6000612de1600e83612407565b9150612dec82612dab565b602082019050919050565b60006020820190508181036000830152612e1081612dd4565b9050919050565b7f4552433732313a2063616c6c6572206973206e6f7420746f6b656e206f776e6560008201527f72206f7220617070726f76656400000000000000000000000000000000000000602082015250565b6000612e73602d83612407565b9150612e7e82612e17565b604082019050919050565b60006020820190508181036000830152612ea281612e66565b9050919050565b7f4552433732313a20696e76616c696420746f6b656e2049440000000000000000600082015250565b6000612edf601883612407565b9150612eea82612ea9565b602082019050919050565b60006020820190508181036000830152612f0e81612ed2565b9050919050565b7f4552433732313a2061646472657373207a65726f206973206e6f74206120766160008201527f6c6964206f776e65720000000000000000000000000000000000000000000000602082015250565b6000612f71602983612407565b9150612f7c82612f15565b604082019050919050565b60006020820190508181036000830152612fa081612f64565b9050919050565b6000612fb2826124ae565b91507fffffffffffffffffffffffffffffffffffffffffffffffffffffffffffffffff8203612fe457612fe3612d53565b5b600182019050919050565b600081905092915050565b6000613005826123fc565b61300f8185612fef565b935061301f818560208601612418565b80840191505092915050565b60006130378285612ffa565b91506130438284612ffa565b91508190509392505050565b7f4f776e61626c653a206e6577206f776e657220697320746865207a65726f206160008201527f6464726573730000000000000000000000000000000000000000000000000000602082015250565b60006130ab602683612407565b91506130b68261304f565b604082019050919050565b600060208201905081810360008301526130da8161309e565b9050919050565b60008190508160005260206000209050919050565b60006020601f8301049050919050565b600082821b905092915050565b6000600883026131437fffffffffffffffffffffffffffffffffffffffffffffffffffffffffffffffff82613106565b61314d8683613106565b95508019841693508086168417925050509392505050565b6000819050919050565b600061318a613185613180846124ae565b613165565b6124ae565b9050919050565b6000819050919050565b6131a48361316f565b6131b86131b082613191565b848454613113565b825550505050565b600090565b6131cd6131c0565b6131d881848461319b565b505050565b5b818110156131fc576131f16000826131c5565b6001810190506131de565b5050565b601f82111561324157613212816130e1565b61321b846130f6565b8101602085101561322a578190505b61323e613236856130f6565b8301826131dd565b50505b505050565b600082821c905092915050565b600061326460001984600802613246565b1980831691505092915050565b600061327d8383613253565b9150826002028217905092915050565b613296826123fc565b67ffffffffffffffff8111156132af576132ae6125e3565b5b6132b98254612bcf565b6132c4828285613200565b600060209050601f8311600181146132f757600084156132e5578287015190505b6132ef8582613271565b865550613357565b601f198416613305866130e1565b60005b8281101561332d57848901518255600182019150602085019450602081019050613308565b8683101561334a5784890151613346601f891682613253565b8355505b6001600288020188555050505b505050505050565b600060408201905061337460008301856129a6565b61338160208301846129a6565b9392505050565b7f4552433732313a207472616e736665722066726f6d20696e636f72726563742060008201527f6f776e6572000000000000000000000000000000000000000000000000000000602082015250565b60006133e4602583612407565b91506133ef82613388565b604082019050919050565b60006020820190508181036000830152613413816133d7565b9050919050565b7f4552433732313a207472616e7366657220746f20746865207a65726f2061646460008201527f7265737300000000000000000000000000000000000000000000000000000000602082015250565b6000613476602483612407565b91506134818261341a565b604082019050919050565b600060208201905081810360008301526134a581613469565b9050919050565b7f4f776e61626c653a2063616c6c6572206973206e6f7420746865206f776e6572600082015250565b60006134e2602083612407565b91506134ed826134ac565b602082019050919050565b60006020820190508181036000830152613511816134d5565b9050919050565b7f4552433732313a20617070726f766520746f2063616c6c657200000000000000600082015250565b600061354e601983612407565b915061355982613518565b602082019050919050565b6000602082019050818103600083015261357d81613541565b9050919050565b7f4552433732313a207472616e7366657220746f206e6f6e20455243373231526560008201527f63656976657220696d706c656d656e7465720000000000000000000000000000602082015250565b60006135e0603283612407565b91506135eb82613584565b604082019050919050565b6000602082019050818103600083015261360f816135d3565b9050919050565b7f4e487b7100000000000000000000000000000000000000000000000000000000600052601260045260246000fd5b6000819050919050565b61366061365b826124ae565b613645565b82525050565b60008160601b9050919050565b600061367e82613666565b9050919050565b600061369082613673565b9050919050565b6136a86136a382612531565b613685565b82525050565b60006136ba828561364f565b6020820191506136ca8284613697565b6014820191508190509392505050565b60006136e5826124ae565b91506136f0836124ae565b925082613700576136ff613616565b5b828206905092915050565b6000613716826124ae565b9150613721836124ae565b925082820390508181111561373957613738612d53565b5b92915050565b600061374a826124ae565b9150613755836124ae565b925082820190508082111561376d5761376c612d53565b5b92915050565b600081519050919050565b600082825260208201905092915050565b600061379a82613773565b6137a4818561377e565b93506137b4818560208601612418565b6137bd81612442565b840191505092915050565b60006080820190506137dd6000830187612543565b6137ea6020830186612543565b6137f760408301856129a6565b8181036060830152613809818461378f565b905095945050505050565b6000815190506138238161236d565b92915050565b60006020828403121561383f5761383e612337565b5b600061384d84828501613814565b91505092915050565b7f4552433732313a206d696e7420746f20746865207a65726f2061646472657373600082015250565b600061388c602083612407565b915061389782613856565b602082019050919050565b600060208201905081810360008301526138bb8161387f565b9050919050565b7f4552433732313a20746f6b656e20616c7265616479206d696e74656400000000600082015250565b60006138f8601c83612407565b9150613903826138c2565b602082019050919050565b60006020820190508181036000830152613927816138eb565b905091905056fea264697066735822122096cfe9c29a30e4c0741388aca28301b6dcd221637058723821ac524bab1cca3e64736f6c63430008110033",
  "immutableReferences": {},
  "source": "// SPDX-License-Identifier: GPL-3.0\r\n\r\npragma solidity >=0.7.0 <0.9.0;\r\n\r\nimport \"@openzeppelin/contracts/access/Ownable.sol\";\r\nimport \"@openzeppelin/contracts/token/ERC721/ERC721.sol\";\r\n\r\ncontract TamaToken is ERC721, Ownable {\r\n    constructor(string memory _name, string memory _symbol) \r\n        ERC721(_name, _symbol)\r\n    {}\r\n\r\n    uint256 COUNTER;\r\n\r\n    uint256 fee = 0.01 ether;\r\n\r\n    struct Tama {\r\n        string name;\r\n        uint256 id;\r\n        uint256 dna;\r\n        uint8 level;\r\n        uint8 rarity;\r\n    }\r\n\r\n    Tama[] tamas;\r\n    // mapping(address => Tama[]) tamas;\r\n\r\n    event NewTamaEvent(address indexed owner, uint256 id, uint256 dna);\r\n\r\n    \r\n    // Creation \r\n    function _createTama(string memory _name) internal {\r\n        uint256 randomDna = _generateNumber(10**16);\r\n        uint8 randomRarity = uint8(_generateNumber(100));\r\n        Tama memory newTama = Tama(_name, COUNTER, randomDna, 1, randomRarity);\r\n        tamas.push(newTama);\r\n        // tamas[msg.sender].push(newTama);\r\n        _safeMint(msg.sender, COUNTER);\r\n        emit NewTamaEvent(msg.sender, COUNTER, randomDna);\r\n        COUNTER++;\r\n    }\r\n\r\n    function createRandomTama(string memory _name) public payable {\r\n        require(msg.value >= fee, \"Not enough fee\");\r\n        _createTama(_name);\r\n    }\r\n\r\n\r\n    // Getters\r\n    function getTamas() \r\n    public view returns(Tama[] memory) {\r\n        return tamas;\r\n    }\r\n\r\n    function getOwnerTamas(address _owner) \r\n    public view returns(Tama[] memory) {\r\n        //  return tamas[_owner];\r\n        Tama[] memory result = new Tama[](balanceOf(_owner));\r\n        uint256 counter = 0;\r\n        \r\n        for(uint256 i = 0; i < tamas.length; i++) {\r\n            if(ownerOf(i) == _owner ) {\r\n                result[counter] = tamas[i];\r\n                counter++;\r\n            }\r\n        }\r\n\r\n        return result;\r\n    }\r\n\r\n\r\n    // Helpers\r\n    function _generateNumber(uint256 _mod) internal view returns(uint256) {\r\n        uint256 randomNumber = uint256(keccak256(abi.encodePacked(block.timestamp, msg.sender)));\r\n        return randomNumber % _mod;\r\n    }\r\n\r\n    function updateFee(uint256 _fee) external onlyOwner() {\r\n        fee = _fee;\r\n    }\r\n\r\n    function withdraw() external payable onlyOwner() {\r\n        address payable _owner = payable(owner());\r\n        _owner.transfer(address(this).balance);\r\n    }\r\n\r\n\r\n    //Actions\r\n    function levelUp(uint256 _tamaId) public {\r\n        require(ownerOf(_tamaId) == msg.sender);\r\n\r\n        Tama storage tama = tamas[_tamaId];\r\n\r\n        tama.level++;\r\n    }\r\n}",
  "sourcePath": "C:\\development\\projects\\tama\\contracts\\TamaToken.sol",
  "compiler": {
    "name": "solc",
    "version": "0.8.17+commit.8df45f5f.Emscripten.clang"
  },
  "schemaVersion": "3.4.11",
  "updatedAt": "2023-01-07T21:08:10.265Z",
  "networkType": "ethereum",
  "devdoc": {
    "kind": "dev",
    "methods": {
      "approve(address,uint256)": {
        "details": "See {IERC721-approve}."
      },
      "balanceOf(address)": {
        "details": "See {IERC721-balanceOf}."
      },
      "getApproved(uint256)": {
        "details": "See {IERC721-getApproved}."
      },
      "isApprovedForAll(address,address)": {
        "details": "See {IERC721-isApprovedForAll}."
      },
      "name()": {
        "details": "See {IERC721Metadata-name}."
      },
      "owner()": {
        "details": "Returns the address of the current owner."
      },
      "ownerOf(uint256)": {
        "details": "See {IERC721-ownerOf}."
      },
      "renounceOwnership()": {
        "details": "Leaves the contract without owner. It will not be possible to call `onlyOwner` functions anymore. Can only be called by the current owner. NOTE: Renouncing ownership will leave the contract without an owner, thereby removing any functionality that is only available to the owner."
      },
      "safeTransferFrom(address,address,uint256)": {
        "details": "See {IERC721-safeTransferFrom}."
      },
      "safeTransferFrom(address,address,uint256,bytes)": {
        "details": "See {IERC721-safeTransferFrom}."
      },
      "setApprovalForAll(address,bool)": {
        "details": "See {IERC721-setApprovalForAll}."
      },
      "supportsInterface(bytes4)": {
        "details": "See {IERC165-supportsInterface}."
      },
      "symbol()": {
        "details": "See {IERC721Metadata-symbol}."
      },
      "tokenURI(uint256)": {
        "details": "See {IERC721Metadata-tokenURI}."
      },
      "transferFrom(address,address,uint256)": {
        "details": "See {IERC721-transferFrom}."
      },
      "transferOwnership(address)": {
        "details": "Transfers ownership of the contract to a new account (`newOwner`). Can only be called by the current owner."
      }
    },
    "version": 1
  },
  "userdoc": {
    "kind": "user",
    "methods": {},
    "version": 1
  }
}