{
  "contractName": "TamaToken",
  "abi": [
    {
      "inputs": [
        {
          "internalType": "string",
          "name": "_name",
          "type": "string"
        },
        {
          "internalType": "string",
          "name": "_symbol",
          "type": "string"
        }
      ],
      "stateMutability": "nonpayable",
      "type": "constructor"
    },
    {
      "anonymous": false,
      "inputs": [
        {
          "indexed": true,
          "internalType": "address",
          "name": "owner",
          "type": "address"
        },
        {
          "indexed": true,
          "internalType": "address",
          "name": "approved",
          "type": "address"
        },
        {
          "indexed": true,
          "internalType": "uint256",
          "name": "tokenId",
          "type": "uint256"
        }
      ],
      "name": "Approval",
      "type": "event"
    },
    {
      "anonymous": false,
      "inputs": [
        {
          "indexed": true,
          "internalType": "address",
          "name": "owner",
          "type": "address"
        },
        {
          "indexed": true,
          "internalType": "address",
          "name": "operator",
          "type": "address"
        },
        {
          "indexed": false,
          "internalType": "bool",
          "name": "approved",
          "type": "bool"
        }
      ],
      "name": "ApprovalForAll",
      "type": "event"
    },
    {
      "anonymous": false,
      "inputs": [
        {
          "indexed": true,
          "internalType": "address",
          "name": "owner",
          "type": "address"
        },
        {
          "indexed": false,
          "internalType": "uint256",
          "name": "id",
          "type": "uint256"
        },
        {
          "indexed": false,
          "internalType": "uint256",
          "name": "dna",
          "type": "uint256"
        }
      ],
      "name": "NewTamaEvent",
      "type": "event"
    },
    {
      "anonymous": false,
      "inputs": [
        {
          "indexed": true,
          "internalType": "address",
          "name": "previousOwner",
          "type": "address"
        },
        {
          "indexed": true,
          "internalType": "address",
          "name": "newOwner",
          "type": "address"
        }
      ],
      "name": "OwnershipTransferred",
      "type": "event"
    },
    {
      "anonymous": false,
      "inputs": [
        {
          "indexed": true,
          "internalType": "address",
          "name": "from",
          "type": "address"
        },
        {
          "indexed": true,
          "internalType": "address",
          "name": "to",
          "type": "address"
        },
        {
          "indexed": true,
          "internalType": "uint256",
          "name": "tokenId",
          "type": "uint256"
        }
      ],
      "name": "Transfer",
      "type": "event"
    },
    {
      "inputs": [
        {
          "internalType": "address",
          "name": "to",
          "type": "address"
        },
        {
          "internalType": "uint256",
          "name": "tokenId",
          "type": "uint256"
        }
      ],
      "name": "approve",
      "outputs": [],
      "stateMutability": "nonpayable",
      "type": "function"
    },
    {
      "inputs": [
        {
          "internalType": "address",
          "name": "owner",
          "type": "address"
        }
      ],
      "name": "balanceOf",
      "outputs": [
        {
          "internalType": "uint256",
          "name": "",
          "type": "uint256"
        }
      ],
      "stateMutability": "view",
      "type": "function",
      "constant": true
    },
    {
      "inputs": [
        {
          "internalType": "uint256",
          "name": "tokenId",
          "type": "uint256"
        }
      ],
      "name": "getApproved",
      "outputs": [
        {
          "internalType": "address",
          "name": "",
          "type": "address"
        }
      ],
      "stateMutability": "view",
      "type": "function",
      "constant": true
    },
    {
      "inputs": [
        {
          "internalType": "address",
          "name": "owner",
          "type": "address"
        },
        {
          "internalType": "address",
          "name": "operator",
          "type": "address"
        }
      ],
      "name": "isApprovedForAll",
      "outputs": [
        {
          "internalType": "bool",
          "name": "",
          "type": "bool"
        }
      ],
      "stateMutability": "view",
      "type": "function",
      "constant": true
    },
    {
      "inputs": [],
      "name": "name",
      "outputs": [
        {
          "internalType": "string",
          "name": "",
          "type": "string"
        }
      ],
      "stateMutability": "view",
      "type": "function",
      "constant": true
    },
    {
      "inputs": [],
      "name": "owner",
      "outputs": [
        {
          "internalType": "address",
          "name": "",
          "type": "address"
        }
      ],
      "stateMutability": "view",
      "type": "function",
      "constant": true
    },
    {
      "inputs": [
        {
          "internalType": "uint256",
          "name": "tokenId",
          "type": "uint256"
        }
      ],
      "name": "ownerOf",
      "outputs": [
        {
          "internalType": "address",
          "name": "",
          "type": "address"
        }
      ],
      "stateMutability": "view",
      "type": "function",
      "constant": true
    },
    {
      "inputs": [],
      "name": "renounceOwnership",
      "outputs": [],
      "stateMutability": "nonpayable",
      "type": "function"
    },
    {
      "inputs": [
        {
          "internalType": "address",
          "name": "from",
          "type": "address"
        },
        {
          "internalType": "address",
          "name": "to",
          "type": "address"
        },
        {
          "internalType": "uint256",
          "name": "tokenId",
          "type": "uint256"
        }
      ],
      "name": "safeTransferFrom",
      "outputs": [],
      "stateMutability": "nonpayable",
      "type": "function"
    },
    {
      "inputs": [
        {
          "internalType": "address",
          "name": "from",
          "type": "address"
        },
        {
          "internalType": "address",
          "name": "to",
          "type": "address"
        },
        {
          "internalType": "uint256",
          "name": "tokenId",
          "type": "uint256"
        },
        {
          "internalType": "bytes",
          "name": "data",
          "type": "bytes"
        }
      ],
      "name": "safeTransferFrom",
      "outputs": [],
      "stateMutability": "nonpayable",
      "type": "function"
    },
    {
      "inputs": [
        {
          "internalType": "address",
          "name": "operator",
          "type": "address"
        },
        {
          "internalType": "bool",
          "name": "approved",
          "type": "bool"
        }
      ],
      "name": "setApprovalForAll",
      "outputs": [],
      "stateMutability": "nonpayable",
      "type": "function"
    },
    {
      "inputs": [
        {
          "internalType": "bytes4",
          "name": "interfaceId",
          "type": "bytes4"
        }
      ],
      "name": "supportsInterface",
      "outputs": [
        {
          "internalType": "bool",
          "name": "",
          "type": "bool"
        }
      ],
      "stateMutability": "view",
      "type": "function",
      "constant": true
    },
    {
      "inputs": [],
      "name": "symbol",
      "outputs": [
        {
          "internalType": "string",
          "name": "",
          "type": "string"
        }
      ],
      "stateMutability": "view",
      "type": "function",
      "constant": true
    },
    {
      "inputs": [
        {
          "internalType": "uint256",
          "name": "tokenId",
          "type": "uint256"
        }
      ],
      "name": "tokenURI",
      "outputs": [
        {
          "internalType": "string",
          "name": "",
          "type": "string"
        }
      ],
      "stateMutability": "view",
      "type": "function",
      "constant": true
    },
    {
      "inputs": [
        {
          "internalType": "address",
          "name": "from",
          "type": "address"
        },
        {
          "internalType": "address",
          "name": "to",
          "type": "address"
        },
        {
          "internalType": "uint256",
          "name": "tokenId",
          "type": "uint256"
        }
      ],
      "name": "transferFrom",
      "outputs": [],
      "stateMutability": "nonpayable",
      "type": "function"
    },
    {
      "inputs": [
        {
          "internalType": "address",
          "name": "newOwner",
          "type": "address"
        }
      ],
      "name": "transferOwnership",
      "outputs": [],
      "stateMutability": "nonpayable",
      "type": "function"
    },
    {
      "inputs": [
        {
          "internalType": "string",
          "name": "_name",
          "type": "string"
        }
      ],
      "name": "createRandomTama",
      "outputs": [],
      "stateMutability": "payable",
      "type": "function",
      "payable": true
    },
    {
      "inputs": [],
      "name": "getTamas",
      "outputs": [
        {
          "components": [
            {
              "internalType": "string",
              "name": "name",
              "type": "string"
            },
            {
              "internalType": "uint256",
              "name": "id",
              "type": "uint256"
            },
            {
              "internalType": "uint256",
              "name": "dna",
              "type": "uint256"
            },
            {
              "internalType": "uint8",
              "name": "level",
              "type": "uint8"
            },
            {
              "internalType": "uint8",
              "name": "rarity",
              "type": "uint8"
            }
          ],
          "internalType": "struct TamaToken.Tama[]",
          "name": "",
          "type": "tuple[]"
        }
      ],
      "stateMutability": "view",
      "type": "function",
      "constant": true
    },
    {
      "inputs": [
        {
          "internalType": "address",
          "name": "_owner",
          "type": "address"
        }
      ],
      "name": "getOwnerTamas",
      "outputs": [
        {
          "components": [
            {
              "internalType": "string",
              "name": "name",
              "type": "string"
            },
            {
              "internalType": "uint256",
              "name": "id",
              "type": "uint256"
            },
            {
              "internalType": "uint256",
              "name": "dna",
              "type": "uint256"
            },
            {
              "internalType": "uint8",
              "name": "level",
              "type": "uint8"
            },
            {
              "internalType": "uint8",
              "name": "rarity",
              "type": "uint8"
            }
          ],
          "internalType": "struct TamaToken.Tama[]",
          "name": "",
          "type": "tuple[]"
        }
      ],
      "stateMutability": "view",
      "type": "function",
      "constant": true
    },
    {
      "inputs": [
        {
          "internalType": "uint256",
          "name": "_fee",
          "type": "uint256"
        }
      ],
      "name": "updateFee",
      "outputs": [],
      "stateMutability": "nonpayable",
      "type": "function"
    },
    {
      "inputs": [],
      "name": "withdraw",
      "outputs": [],
      "stateMutability": "payable",
      "type": "function",
      "payable": true
    }
  ],
  "bytecode": "0x60806040526001600755670de0b6b3a76400006008553480156200002257600080fd5b5060405162003f1538038062003f158339818101604052810190620000489190620002f9565b818181600090816200005b9190620005c9565b5080600190816200006d9190620005c9565b50505062000090620000846200009860201b60201c565b620000a060201b60201c565b5050620006b0565b600033905090565b6000600660009054906101000a900473ffffffffffffffffffffffffffffffffffffffff16905081600660006101000a81548173ffffffffffffffffffffffffffffffffffffffff021916908373ffffffffffffffffffffffffffffffffffffffff1602179055508173ffffffffffffffffffffffffffffffffffffffff168173ffffffffffffffffffffffffffffffffffffffff167f8be0079c531659141344cd1fd0a4f28419497f9722a3daafe3b4186f6b6457e060405160405180910390a35050565b6000604051905090565b600080fd5b600080fd5b600080fd5b600080fd5b6000601f19601f8301169050919050565b7f4e487b7100000000000000000000000000000000000000000000000000000000600052604160045260246000fd5b620001cf8262000184565b810181811067ffffffffffffffff82111715620001f157620001f062000195565b5b80604052505050565b60006200020662000166565b9050620002148282620001c4565b919050565b600067ffffffffffffffff82111562000237576200023662000195565b5b620002428262000184565b9050602081019050919050565b60005b838110156200026f57808201518184015260208101905062000252565b60008484015250505050565b6000620002926200028c8462000219565b620001fa565b905082815260208101848484011115620002b157620002b06200017f565b5b620002be8482856200024f565b509392505050565b600082601f830112620002de57620002dd6200017a565b5b8151620002f08482602086016200027b565b91505092915050565b6000806040838503121562000313576200031262000170565b5b600083015167ffffffffffffffff81111562000334576200033362000175565b5b6200034285828601620002c6565b925050602083015167ffffffffffffffff81111562000366576200036562000175565b5b6200037485828601620002c6565b9150509250929050565b600081519050919050565b7f4e487b7100000000000000000000000000000000000000000000000000000000600052602260045260246000fd5b60006002820490506001821680620003d157607f821691505b602082108103620003e757620003e662000389565b5b50919050565b60008190508160005260206000209050919050565b60006020601f8301049050919050565b600082821b905092915050565b600060088302620004517fffffffffffffffffffffffffffffffffffffffffffffffffffffffffffffffff8262000412565b6200045d868362000412565b95508019841693508086168417925050509392505050565b6000819050919050565b6000819050919050565b6000620004aa620004a46200049e8462000475565b6200047f565b62000475565b9050919050565b6000819050919050565b620004c68362000489565b620004de620004d582620004b1565b8484546200041f565b825550505050565b600090565b620004f5620004e6565b62000502818484620004bb565b505050565b5b818110156200052a576200051e600082620004eb565b60018101905062000508565b5050565b601f82111562000579576200054381620003ed565b6200054e8462000402565b810160208510156200055e578190505b620005766200056d8562000402565b83018262000507565b50505b505050565b600082821c905092915050565b60006200059e600019846008026200057e565b1980831691505092915050565b6000620005b983836200058b565b9150826002028217905092915050565b620005d4826200037e565b67ffffffffffffffff811115620005f057620005ef62000195565b5b620005fc8254620003b8565b620006098282856200052e565b600060209050601f8311600181146200064157600084156200062c578287015190505b620006388582620005ab565b865550620006a8565b601f1984166200065186620003ed565b60005b828110156200067b5784890151825560018201915060208501945060208101905062000654565b868310156200069b578489015162000697601f8916826200058b565b8355505b6001600288020188555050505b505050505050565b61385580620006c06000396000f3fe60806040526004361061012a5760003560e01c806370a08231116100ab57806395d89b411161006f57806395d89b41146103c2578063a22cb465146103ed578063b88d4fde14610416578063c87b56dd1461043f578063e985e9c51461047c578063f2fde38b146104b95761012a565b806370a08231146102dd578063715018a61461031a5780637973e364146103315780638da5cb5b1461036e5780639012c4a8146103995761012a565b806323b872dd116100f257806323b872dd146102195780633ccfd60b1461024257806342842e0e1461024c578063479a585a146102755780636352211e146102a05761012a565b806301ffc9a71461012f57806306fdde031461016c578063081812fc14610197578063095ea7b3146101d45780630d542a08146101fd575b600080fd5b34801561013b57600080fd5b50610156600480360381019061015191906122b3565b6104e2565b60405161016391906122fb565b60405180910390f35b34801561017857600080fd5b506101816105c4565b60405161018e91906123a6565b60405180910390f35b3480156101a357600080fd5b506101be60048036038101906101b991906123fe565b610656565b6040516101cb919061246c565b60405180910390f35b3480156101e057600080fd5b506101fb60048036038101906101f691906124b3565b61069c565b005b61021760048036038101906102129190612628565b6107b3565b005b34801561022557600080fd5b50610240600480360381019061023b9190612671565b610804565b005b61024a610864565b005b34801561025857600080fd5b50610273600480360381019061026e9190612671565b6108c2565b005b34801561028157600080fd5b5061028a6108e2565b6040516102979190612871565b60405180910390f35b3480156102ac57600080fd5b506102c760048036038101906102c291906123fe565b610a21565b6040516102d4919061246c565b60405180910390f35b3480156102e957600080fd5b5061030460048036038101906102ff9190612893565b610aa7565b60405161031191906128cf565b60405180910390f35b34801561032657600080fd5b5061032f610b5e565b005b34801561033d57600080fd5b5061035860048036038101906103539190612893565b610b72565b6040516103659190612871565b60405180910390f35b34801561037a57600080fd5b50610383610d78565b604051610390919061246c565b60405180910390f35b3480156103a557600080fd5b506103c060048036038101906103bb91906123fe565b610da2565b005b3480156103ce57600080fd5b506103d7610db4565b6040516103e491906123a6565b60405180910390f35b3480156103f957600080fd5b50610414600480360381019061040f9190612916565b610e46565b005b34801561042257600080fd5b5061043d600480360381019061043891906129f7565b610e5c565b005b34801561044b57600080fd5b50610466600480360381019061046191906123fe565b610ebe565b60405161047391906123a6565b60405180910390f35b34801561048857600080fd5b506104a3600480360381019061049e9190612a7a565b610f26565b6040516104b091906122fb565b60405180910390f35b3480156104c557600080fd5b506104e060048036038101906104db9190612893565b610fba565b005b60007f80ac58cd000000000000000000000000000000000000000000000000000000007bffffffffffffffffffffffffffffffffffffffffffffffffffffffff1916827bffffffffffffffffffffffffffffffffffffffffffffffffffffffff191614806105ad57507f5b5e139f000000000000000000000000000000000000000000000000000000007bffffffffffffffffffffffffffffffffffffffffffffffffffffffff1916827bffffffffffffffffffffffffffffffffffffffffffffffffffffffff1916145b806105bd57506105bc8261103d565b5b9050919050565b6060600080546105d390612ae9565b80601f01602080910402602001604051908101604052809291908181526020018280546105ff90612ae9565b801561064c5780601f106106215761010080835404028352916020019161064c565b820191906000526020600020905b81548152906001019060200180831161062f57829003601f168201915b5050505050905090565b6000610661826110a7565b6004600083815260200190815260200160002060009054906101000a900473ffffffffffffffffffffffffffffffffffffffff169050919050565b60006106a782610a21565b90508073ffffffffffffffffffffffffffffffffffffffff168373ffffffffffffffffffffffffffffffffffffffff1603610717576040517f08c379a000000000000000000000000000000000000000000000000000000000815260040161070e90612b8c565b60405180910390fd5b8073ffffffffffffffffffffffffffffffffffffffff166107366110f2565b73ffffffffffffffffffffffffffffffffffffffff16148061076557506107648161075f6110f2565b610f26565b5b6107a4576040517f08c379a000000000000000000000000000000000000000000000000000000000815260040161079b90612c1e565b60405180910390fd5b6107ae83836110fa565b505050565b6008543410156107f8576040517f08c379a00000000000000000000000000000000000000000000000000000000081526004016107ef90612c8a565b60405180910390fd5b610801816111b3565b50565b61081561080f6110f2565b82611311565b610854576040517f08c379a000000000000000000000000000000000000000000000000000000000815260040161084b90612d1c565b60405180910390fd5b61085f8383836113a6565b505050565b61086c61169f565b6000610876610d78565b90508073ffffffffffffffffffffffffffffffffffffffff166108fc479081150290604051600060405180830381858888f193505050501580156108be573d6000803e3d6000fd5b5050565b6108dd83838360405180602001604052806000815250610e5c565b505050565b60606009805480602002602001604051908101604052809291908181526020016000905b82821015610a1857838290600052602060002090600402016040518060a001604052908160008201805461093990612ae9565b80601f016020809104026020016040519081016040528092919081815260200182805461096590612ae9565b80156109b25780601f10610987576101008083540402835291602001916109b2565b820191906000526020600020905b81548152906001019060200180831161099557829003601f168201915b5050505050815260200160018201548152602001600282015481526020016003820160009054906101000a900460ff1660ff1660ff1681526020016003820160019054906101000a900460ff1660ff1660ff168152505081526020019060010190610906565b50505050905090565b600080610a2d8361171d565b9050600073ffffffffffffffffffffffffffffffffffffffff168173ffffffffffffffffffffffffffffffffffffffff1603610a9e576040517f08c379a0000000000000000000000000000000000000000000000000000000008152600401610a9590612d88565b60405180910390fd5b80915050919050565b60008073ffffffffffffffffffffffffffffffffffffffff168273ffffffffffffffffffffffffffffffffffffffff1603610b17576040517f08c379a0000000000000000000000000000000000000000000000000000000008152600401610b0e90612e1a565b60405180910390fd5b600360008373ffffffffffffffffffffffffffffffffffffffff1673ffffffffffffffffffffffffffffffffffffffff168152602001908152602001600020549050919050565b610b6661169f565b610b70600061175a565b565b60606000610b7f83610aa7565b67ffffffffffffffff811115610b9857610b976124fd565b5b604051908082528060200260200182016040528015610bd157816020015b610bbe612212565b815260200190600190039081610bb65790505b5090506000805b600980549050811015610d6d578473ffffffffffffffffffffffffffffffffffffffff16610c0582610a21565b73ffffffffffffffffffffffffffffffffffffffff1603610d5a5760098181548110610c3457610c33612e3a565b5b90600052602060002090600402016040518060a0016040529081600082018054610c5d90612ae9565b80601f0160208091040260200160405190810160405280929190818152602001828054610c8990612ae9565b8015610cd65780601f10610cab57610100808354040283529160200191610cd6565b820191906000526020600020905b815481529060010190602001808311610cb957829003601f168201915b5050505050815260200160018201548152602001600282015481526020016003820160009054906101000a900460ff1660ff1660ff1681526020016003820160019054906101000a900460ff1660ff1660ff1681525050838381518110610d4057610d3f612e3a565b5b60200260200101819052508180610d5690612e98565b9250505b8080610d6590612e98565b915050610bd8565b508192505050919050565b6000600660009054906101000a900473ffffffffffffffffffffffffffffffffffffffff16905090565b610daa61169f565b8060088190555050565b606060018054610dc390612ae9565b80601f0160208091040260200160405190810160405280929190818152602001828054610def90612ae9565b8015610e3c5780601f10610e1157610100808354040283529160200191610e3c565b820191906000526020600020905b815481529060010190602001808311610e1f57829003601f168201915b5050505050905090565b610e58610e516110f2565b8383611820565b5050565b610e6d610e676110f2565b83611311565b610eac576040517f08c379a0000000000000000000000000000000000000000000000000000000008152600401610ea390612d1c565b60405180910390fd5b610eb88484848461198c565b50505050565b6060610ec9826110a7565b6000610ed36119e8565b90506000815111610ef35760405180602001604052806000815250610f1e565b80610efd846119ff565b604051602001610f0e929190612f1c565b6040516020818303038152906040525b915050919050565b6000600560008473ffffffffffffffffffffffffffffffffffffffff1673ffffffffffffffffffffffffffffffffffffffff16815260200190815260200160002060008373ffffffffffffffffffffffffffffffffffffffff1673ffffffffffffffffffffffffffffffffffffffff16815260200190815260200160002060009054906101000a900460ff16905092915050565b610fc261169f565b600073ffffffffffffffffffffffffffffffffffffffff168173ffffffffffffffffffffffffffffffffffffffff1603611031576040517f08c379a000000000000000000000000000000000000000000000000000000000815260040161102890612fb2565b60405180910390fd5b61103a8161175a565b50565b60007f01ffc9a7000000000000000000000000000000000000000000000000000000007bffffffffffffffffffffffffffffffffffffffffffffffffffffffff1916827bffffffffffffffffffffffffffffffffffffffffffffffffffffffff1916149050919050565b6110b081611acd565b6110ef576040517f08c379a00000000000000000000000000000000000000000000000000000000081526004016110e690612d88565b60405180910390fd5b50565b600033905090565b816004600083815260200190815260200160002060006101000a81548173ffffffffffffffffffffffffffffffffffffffff021916908373ffffffffffffffffffffffffffffffffffffffff160217905550808273ffffffffffffffffffffffffffffffffffffffff1661116d83610a21565b73ffffffffffffffffffffffffffffffffffffffff167f8c5be1e5ebec7d5bd14f71427d1e84f3dd0314c0f7b2291e5b200ac8c7c3b92560405160405180910390a45050565b60006111c5662386f26fc10000611b0e565b905060006040518060a001604052808481526020016007548152602001838152602001600160ff168152602001600160ff1681525090506009819080600181540180825580915050600190039060005260206000209060040201600090919091909150600082015181600001908161123d919061317e565b50602082015181600101556040820151816002015560608201518160030160006101000a81548160ff021916908360ff16021790555060808201518160030160016101000a81548160ff021916908360ff16021790555050506112a233600754611b53565b3373ffffffffffffffffffffffffffffffffffffffff167faa53bee18524d71478838ab6ea8cb1897202e7df3abf3b4219b971f0d6a2fafa600754846040516112ec929190613250565b60405180910390a26007600081548092919061130790612e98565b9190505550505050565b60008061131d83610a21565b90508073ffffffffffffffffffffffffffffffffffffffff168473ffffffffffffffffffffffffffffffffffffffff16148061135f575061135e8185610f26565b5b8061139d57508373ffffffffffffffffffffffffffffffffffffffff1661138584610656565b73ffffffffffffffffffffffffffffffffffffffff16145b91505092915050565b8273ffffffffffffffffffffffffffffffffffffffff166113c682610a21565b73ffffffffffffffffffffffffffffffffffffffff161461141c576040517f08c379a0000000000000000000000000000000000000000000000000000000008152600401611413906132eb565b60405180910390fd5b600073ffffffffffffffffffffffffffffffffffffffff168273ffffffffffffffffffffffffffffffffffffffff160361148b576040517f08c379a00000000000000000000000000000000000000000000000000000000081526004016114829061337d565b60405180910390fd5b6114988383836001611b71565b8273ffffffffffffffffffffffffffffffffffffffff166114b882610a21565b73ffffffffffffffffffffffffffffffffffffffff161461150e576040517f08c379a0000000000000000000000000000000000000000000000000000000008152600401611505906132eb565b60405180910390fd5b6004600082815260200190815260200160002060006101000a81549073ffffffffffffffffffffffffffffffffffffffff02191690556001600360008573ffffffffffffffffffffffffffffffffffffffff1673ffffffffffffffffffffffffffffffffffffffff168152602001908152602001600020600082825403925050819055506001600360008473ffffffffffffffffffffffffffffffffffffffff1673ffffffffffffffffffffffffffffffffffffffff16815260200190815260200160002060008282540192505081905550816002600083815260200190815260200160002060006101000a81548173ffffffffffffffffffffffffffffffffffffffff021916908373ffffffffffffffffffffffffffffffffffffffff160217905550808273ffffffffffffffffffffffffffffffffffffffff168473ffffffffffffffffffffffffffffffffffffffff167fddf252ad1be2c89b69c2b068fc378daa952ba7f163c4a11628f55a4df523b3ef60405160405180910390a461169a8383836001611c97565b505050565b6116a76110f2565b73ffffffffffffffffffffffffffffffffffffffff166116c5610d78565b73ffffffffffffffffffffffffffffffffffffffff161461171b576040517f08c379a0000000000000000000000000000000000000000000000000000000008152600401611712906133e9565b60405180910390fd5b565b60006002600083815260200190815260200160002060009054906101000a900473ffffffffffffffffffffffffffffffffffffffff169050919050565b6000600660009054906101000a900473ffffffffffffffffffffffffffffffffffffffff16905081600660006101000a81548173ffffffffffffffffffffffffffffffffffffffff021916908373ffffffffffffffffffffffffffffffffffffffff1602179055508173ffffffffffffffffffffffffffffffffffffffff168173ffffffffffffffffffffffffffffffffffffffff167f8be0079c531659141344cd1fd0a4f28419497f9722a3daafe3b4186f6b6457e060405160405180910390a35050565b8173ffffffffffffffffffffffffffffffffffffffff168373ffffffffffffffffffffffffffffffffffffffff160361188e576040517f08c379a000000000000000000000000000000000000000000000000000000000815260040161188590613455565b60405180910390fd5b80600560008573ffffffffffffffffffffffffffffffffffffffff1673ffffffffffffffffffffffffffffffffffffffff16815260200190815260200160002060008473ffffffffffffffffffffffffffffffffffffffff1673ffffffffffffffffffffffffffffffffffffffff16815260200190815260200160002060006101000a81548160ff0219169083151502179055508173ffffffffffffffffffffffffffffffffffffffff168373ffffffffffffffffffffffffffffffffffffffff167f17307eab39ab6107e8899845ad3d59bd9653f200f220920489ca2b5937696c318360405161197f91906122fb565b60405180910390a3505050565b6119978484846113a6565b6119a384848484611c9d565b6119e2576040517f08c379a00000000000000000000000000000000000000000000000000000000081526004016119d9906134e7565b60405180910390fd5b50505050565b606060405180602001604052806000815250905090565b606060006001611a0e84611e24565b01905060008167ffffffffffffffff811115611a2d57611a2c6124fd565b5b6040519080825280601f01601f191660200182016040528015611a5f5781602001600182028036833780820191505090505b509050600082602001820190505b600115611ac2578080600190039150507f3031323334353637383961626364656600000000000000000000000000000000600a86061a8153600a8581611ab657611ab5613507565b5b04945060008503611a6d575b819350505050919050565b60008073ffffffffffffffffffffffffffffffffffffffff16611aef8361171d565b73ffffffffffffffffffffffffffffffffffffffff1614159050919050565b6000804233604051602001611b2492919061359f565b6040516020818303038152906040528051906020012060001c90508281611b4b91906135cb565b915050919050565b611b6d828260405180602001604052806000815250611f77565b5050565b6001811115611c9157600073ffffffffffffffffffffffffffffffffffffffff168473ffffffffffffffffffffffffffffffffffffffff1614611c055780600360008673ffffffffffffffffffffffffffffffffffffffff1673ffffffffffffffffffffffffffffffffffffffff1681526020019081526020016000206000828254611bfd91906135fc565b925050819055505b600073ffffffffffffffffffffffffffffffffffffffff168373ffffffffffffffffffffffffffffffffffffffff1614611c905780600360008573ffffffffffffffffffffffffffffffffffffffff1673ffffffffffffffffffffffffffffffffffffffff1681526020019081526020016000206000828254611c889190613630565b925050819055505b5b50505050565b50505050565b6000611cbe8473ffffffffffffffffffffffffffffffffffffffff16611fd2565b15611e17578373ffffffffffffffffffffffffffffffffffffffff1663150b7a02611ce76110f2565b8786866040518563ffffffff1660e01b8152600401611d0994939291906136b9565b6020604051808303816000875af1925050508015611d4557506040513d601f19601f82011682018060405250810190611d42919061371a565b60015b611dc7573d8060008114611d75576040519150601f19603f3d011682016040523d82523d6000602084013e611d7a565b606091505b506000815103611dbf576040517f08c379a0000000000000000000000000000000000000000000000000000000008152600401611db6906134e7565b60405180910390fd5b805181602001fd5b63150b7a0260e01b7bffffffffffffffffffffffffffffffffffffffffffffffffffffffff1916817bffffffffffffffffffffffffffffffffffffffffffffffffffffffff191614915050611e1c565b600190505b949350505050565b600080600090507a184f03e93ff9f4daa797ed6e38ed64bf6a1f0100000000000000008310611e82577a184f03e93ff9f4daa797ed6e38ed64bf6a1f0100000000000000008381611e7857611e77613507565b5b0492506040810190505b6d04ee2d6d415b85acef81000000008310611ebf576d04ee2d6d415b85acef81000000008381611eb557611eb4613507565b5b0492506020810190505b662386f26fc100008310611eee57662386f26fc100008381611ee457611ee3613507565b5b0492506010810190505b6305f5e1008310611f17576305f5e1008381611f0d57611f0c613507565b5b0492506008810190505b6127108310611f3c576127108381611f3257611f31613507565b5b0492506004810190505b60648310611f5f5760648381611f5557611f54613507565b5b0492506002810190505b600a8310611f6e576001810190505b80915050919050565b611f818383611ff5565b611f8e6000848484611c9d565b611fcd576040517f08c379a0000000000000000000000000000000000000000000000000000000008152600401611fc4906134e7565b60405180910390fd5b505050565b6000808273ffffffffffffffffffffffffffffffffffffffff163b119050919050565b600073ffffffffffffffffffffffffffffffffffffffff168273ffffffffffffffffffffffffffffffffffffffff1603612064576040517f08c379a000000000000000000000000000000000000000000000000000000000815260040161205b90613793565b60405180910390fd5b61206d81611acd565b156120ad576040517f08c379a00000000000000000000000000000000000000000000000000000000081526004016120a4906137ff565b60405180910390fd5b6120bb600083836001611b71565b6120c481611acd565b15612104576040517f08c379a00000000000000000000000000000000000000000000000000000000081526004016120fb906137ff565b60405180910390fd5b6001600360008473ffffffffffffffffffffffffffffffffffffffff1673ffffffffffffffffffffffffffffffffffffffff16815260200190815260200160002060008282540192505081905550816002600083815260200190815260200160002060006101000a81548173ffffffffffffffffffffffffffffffffffffffff021916908373ffffffffffffffffffffffffffffffffffffffff160217905550808273ffffffffffffffffffffffffffffffffffffffff16600073ffffffffffffffffffffffffffffffffffffffff167fddf252ad1be2c89b69c2b068fc378daa952ba7f163c4a11628f55a4df523b3ef60405160405180910390a461220e600083836001611c97565b5050565b6040518060a00160405280606081526020016000815260200160008152602001600060ff168152602001600060ff1681525090565b6000604051905090565b600080fd5b600080fd5b60007fffffffff0000000000000000000000000000000000000000000000000000000082169050919050565b6122908161225b565b811461229b57600080fd5b50565b6000813590506122ad81612287565b92915050565b6000602082840312156122c9576122c8612251565b5b60006122d78482850161229e565b91505092915050565b60008115159050919050565b6122f5816122e0565b82525050565b600060208201905061231060008301846122ec565b92915050565b600081519050919050565b600082825260208201905092915050565b60005b83811015612350578082015181840152602081019050612335565b60008484015250505050565b6000601f19601f8301169050919050565b600061237882612316565b6123828185612321565b9350612392818560208601612332565b61239b8161235c565b840191505092915050565b600060208201905081810360008301526123c0818461236d565b905092915050565b6000819050919050565b6123db816123c8565b81146123e657600080fd5b50565b6000813590506123f8816123d2565b92915050565b60006020828403121561241457612413612251565b5b6000612422848285016123e9565b91505092915050565b600073ffffffffffffffffffffffffffffffffffffffff82169050919050565b60006124568261242b565b9050919050565b6124668161244b565b82525050565b6000602082019050612481600083018461245d565b92915050565b6124908161244b565b811461249b57600080fd5b50565b6000813590506124ad81612487565b92915050565b600080604083850312156124ca576124c9612251565b5b60006124d88582860161249e565b92505060206124e9858286016123e9565b9150509250929050565b600080fd5b600080fd5b7f4e487b7100000000000000000000000000000000000000000000000000000000600052604160045260246000fd5b6125358261235c565b810181811067ffffffffffffffff82111715612554576125536124fd565b5b80604052505050565b6000612567612247565b9050612573828261252c565b919050565b600067ffffffffffffffff821115612593576125926124fd565b5b61259c8261235c565b9050602081019050919050565b82818337600083830152505050565b60006125cb6125c684612578565b61255d565b9050828152602081018484840111156125e7576125e66124f8565b5b6125f28482856125a9565b509392505050565b600082601f83011261260f5761260e6124f3565b5b813561261f8482602086016125b8565b91505092915050565b60006020828403121561263e5761263d612251565b5b600082013567ffffffffffffffff81111561265c5761265b612256565b5b612668848285016125fa565b91505092915050565b60008060006060848603121561268a57612689612251565b5b60006126988682870161249e565b93505060206126a98682870161249e565b92505060406126ba868287016123e9565b9150509250925092565b600081519050919050565b600082825260208201905092915050565b6000819050602082019050919050565b600082825260208201905092915050565b600061270c82612316565b61271681856126f0565b9350612726818560208601612332565b61272f8161235c565b840191505092915050565b612743816123c8565b82525050565b600060ff82169050919050565b61275f81612749565b82525050565b600060a08301600083015184820360008601526127828282612701565b9150506020830151612797602086018261273a565b5060408301516127aa604086018261273a565b5060608301516127bd6060860182612756565b5060808301516127d06080860182612756565b508091505092915050565b60006127e78383612765565b905092915050565b6000602082019050919050565b6000612807826126c4565b61281181856126cf565b935083602082028501612823856126e0565b8060005b8581101561285f578484038952815161284085826127db565b945061284b836127ef565b925060208a01995050600181019050612827565b50829750879550505050505092915050565b6000602082019050818103600083015261288b81846127fc565b905092915050565b6000602082840312156128a9576128a8612251565b5b60006128b78482850161249e565b91505092915050565b6128c9816123c8565b82525050565b60006020820190506128e460008301846128c0565b92915050565b6128f3816122e0565b81146128fe57600080fd5b50565b600081359050612910816128ea565b92915050565b6000806040838503121561292d5761292c612251565b5b600061293b8582860161249e565b925050602061294c85828601612901565b9150509250929050565b600067ffffffffffffffff821115612971576129706124fd565b5b61297a8261235c565b9050602081019050919050565b600061299a61299584612956565b61255d565b9050828152602081018484840111156129b6576129b56124f8565b5b6129c18482856125a9565b509392505050565b600082601f8301126129de576129dd6124f3565b5b81356129ee848260208601612987565b91505092915050565b60008060008060808587031215612a1157612a10612251565b5b6000612a1f8782880161249e565b9450506020612a308782880161249e565b9350506040612a41878288016123e9565b925050606085013567ffffffffffffffff811115612a6257612a61612256565b5b612a6e878288016129c9565b91505092959194509250565b60008060408385031215612a9157612a90612251565b5b6000612a9f8582860161249e565b9250506020612ab08582860161249e565b9150509250929050565b7f4e487b7100000000000000000000000000000000000000000000000000000000600052602260045260246000fd5b60006002820490506001821680612b0157607f821691505b602082108103612b1457612b13612aba565b5b50919050565b7f4552433732313a20617070726f76616c20746f2063757272656e74206f776e6560008201527f7200000000000000000000000000000000000000000000000000000000000000602082015250565b6000612b76602183612321565b9150612b8182612b1a565b604082019050919050565b60006020820190508181036000830152612ba581612b69565b9050919050565b7f4552433732313a20617070726f76652063616c6c6572206973206e6f7420746f60008201527f6b656e206f776e6572206f7220617070726f76656420666f7220616c6c000000602082015250565b6000612c08603d83612321565b9150612c1382612bac565b604082019050919050565b60006020820190508181036000830152612c3781612bfb565b9050919050565b7f4e6f7420656e6f75676820666565000000000000000000000000000000000000600082015250565b6000612c74600e83612321565b9150612c7f82612c3e565b602082019050919050565b60006020820190508181036000830152612ca381612c67565b9050919050565b7f4552433732313a2063616c6c6572206973206e6f7420746f6b656e206f776e6560008201527f72206f7220617070726f76656400000000000000000000000000000000000000602082015250565b6000612d06602d83612321565b9150612d1182612caa565b604082019050919050565b60006020820190508181036000830152612d3581612cf9565b9050919050565b7f4552433732313a20696e76616c696420746f6b656e2049440000000000000000600082015250565b6000612d72601883612321565b9150612d7d82612d3c565b602082019050919050565b60006020820190508181036000830152612da181612d65565b9050919050565b7f4552433732313a2061646472657373207a65726f206973206e6f74206120766160008201527f6c6964206f776e65720000000000000000000000000000000000000000000000602082015250565b6000612e04602983612321565b9150612e0f82612da8565b604082019050919050565b60006020820190508181036000830152612e3381612df7565b9050919050565b7f4e487b7100000000000000000000000000000000000000000000000000000000600052603260045260246000fd5b7f4e487b7100000000000000000000000000000000000000000000000000000000600052601160045260246000fd5b6000612ea3826123c8565b91507fffffffffffffffffffffffffffffffffffffffffffffffffffffffffffffffff8203612ed557612ed4612e69565b5b600182019050919050565b600081905092915050565b6000612ef682612316565b612f008185612ee0565b9350612f10818560208601612332565b80840191505092915050565b6000612f288285612eeb565b9150612f348284612eeb565b91508190509392505050565b7f4f776e61626c653a206e6577206f776e657220697320746865207a65726f206160008201527f6464726573730000000000000000000000000000000000000000000000000000602082015250565b6000612f9c602683612321565b9150612fa782612f40565b604082019050919050565b60006020820190508181036000830152612fcb81612f8f565b9050919050565b60008190508160005260206000209050919050565b60006020601f8301049050919050565b600082821b905092915050565b6000600883026130347fffffffffffffffffffffffffffffffffffffffffffffffffffffffffffffffff82612ff7565b61303e8683612ff7565b95508019841693508086168417925050509392505050565b6000819050919050565b600061307b613076613071846123c8565b613056565b6123c8565b9050919050565b6000819050919050565b61309583613060565b6130a96130a182613082565b848454613004565b825550505050565b600090565b6130be6130b1565b6130c981848461308c565b505050565b5b818110156130ed576130e26000826130b6565b6001810190506130cf565b5050565b601f8211156131325761310381612fd2565b61310c84612fe7565b8101602085101561311b578190505b61312f61312785612fe7565b8301826130ce565b50505b505050565b600082821c905092915050565b600061315560001984600802613137565b1980831691505092915050565b600061316e8383613144565b9150826002028217905092915050565b61318782612316565b67ffffffffffffffff8111156131a05761319f6124fd565b5b6131aa8254612ae9565b6131b58282856130f1565b600060209050601f8311600181146131e857600084156131d6578287015190505b6131e08582613162565b865550613248565b601f1984166131f686612fd2565b60005b8281101561321e578489015182556001820191506020850194506020810190506131f9565b8683101561323b5784890151613237601f891682613144565b8355505b6001600288020188555050505b505050505050565b600060408201905061326560008301856128c0565b61327260208301846128c0565b9392505050565b7f4552433732313a207472616e736665722066726f6d20696e636f72726563742060008201527f6f776e6572000000000000000000000000000000000000000000000000000000602082015250565b60006132d5602583612321565b91506132e082613279565b604082019050919050565b60006020820190508181036000830152613304816132c8565b9050919050565b7f4552433732313a207472616e7366657220746f20746865207a65726f2061646460008201527f7265737300000000000000000000000000000000000000000000000000000000602082015250565b6000613367602483612321565b91506133728261330b565b604082019050919050565b600060208201905081810360008301526133968161335a565b9050919050565b7f4f776e61626c653a2063616c6c6572206973206e6f7420746865206f776e6572600082015250565b60006133d3602083612321565b91506133de8261339d565b602082019050919050565b60006020820190508181036000830152613402816133c6565b9050919050565b7f4552433732313a20617070726f766520746f2063616c6c657200000000000000600082015250565b600061343f601983612321565b915061344a82613409565b602082019050919050565b6000602082019050818103600083015261346e81613432565b9050919050565b7f4552433732313a207472616e7366657220746f206e6f6e20455243373231526560008201527f63656976657220696d706c656d656e7465720000000000000000000000000000602082015250565b60006134d1603283612321565b91506134dc82613475565b604082019050919050565b60006020820190508181036000830152613500816134c4565b9050919050565b7f4e487b7100000000000000000000000000000000000000000000000000000000600052601260045260246000fd5b6000819050919050565b61355161354c826123c8565b613536565b82525050565b60008160601b9050919050565b600061356f82613557565b9050919050565b600061358182613564565b9050919050565b6135996135948261244b565b613576565b82525050565b60006135ab8285613540565b6020820191506135bb8284613588565b6014820191508190509392505050565b60006135d6826123c8565b91506135e1836123c8565b9250826135f1576135f0613507565b5b828206905092915050565b6000613607826123c8565b9150613612836123c8565b925082820390508181111561362a57613629612e69565b5b92915050565b600061363b826123c8565b9150613646836123c8565b925082820190508082111561365e5761365d612e69565b5b92915050565b600081519050919050565b600082825260208201905092915050565b600061368b82613664565b613695818561366f565b93506136a5818560208601612332565b6136ae8161235c565b840191505092915050565b60006080820190506136ce600083018761245d565b6136db602083018661245d565b6136e860408301856128c0565b81810360608301526136fa8184613680565b905095945050505050565b60008151905061371481612287565b92915050565b6000602082840312156137305761372f612251565b5b600061373e84828501613705565b91505092915050565b7f4552433732313a206d696e7420746f20746865207a65726f2061646472657373600082015250565b600061377d602083612321565b915061378882613747565b602082019050919050565b600060208201905081810360008301526137ac81613770565b9050919050565b7f4552433732313a20746f6b656e20616c7265616479206d696e74656400000000600082015250565b60006137e9601c83612321565b91506137f4826137b3565b602082019050919050565b60006020820190508181036000830152613818816137dc565b905091905056fea2646970667358221220dd644d908820b8662403902ed518896d712b786ccf26df54406309b128e4072564736f6c63430008110033",
  "immutableReferences": {},
  "source": "// SPDX-License-Identifier: GPL-3.0\r\n\r\npragma solidity >=0.7.0 <0.9.0;\r\n\r\nimport \"@openzeppelin/contracts/access/Ownable.sol\";\r\nimport \"@openzeppelin/contracts/token/ERC721/ERC721.sol\";\r\n\r\ncontract TamaToken is ERC721, Ownable {\r\n    constructor(string memory _name, string memory _symbol) \r\n        ERC721(_name, _symbol)\r\n    {}\r\n\r\n    uint256 COUNTER = 1;\r\n\r\n    uint256 fee = 1 ether;\r\n\r\n    struct Tama {\r\n        string name;\r\n        uint256 id;\r\n        uint256 dna;\r\n        uint8 level;\r\n        uint8 rarity;\r\n    }\r\n\r\n    Tama[] tamas;\r\n\r\n    event NewTamaEvent(address indexed owner, uint256 id, uint256 dna);\r\n\r\n    \r\n    // Creation \r\n    function _createTama(string memory _name) internal {\r\n        uint256 randomDna = _generateNumber(10**16);\r\n        Tama memory newTama = Tama(_name, COUNTER, randomDna, 1, 1);\r\n        tamas.push(newTama);\r\n        _safeMint(msg.sender, COUNTER);\r\n        emit NewTamaEvent(msg.sender, COUNTER, randomDna);\r\n        COUNTER++;\r\n    }\r\n\r\n    function createRandomTama(string memory _name) public payable {\r\n        require(msg.value >= fee, \"Not enough fee\");\r\n        \r\n        _createTama(_name);\r\n    }\r\n\r\n\r\n    // Getters\r\n    function getTamas() \r\n    public view returns(Tama[] memory) {\r\n        return tamas;\r\n    }\r\n\r\n    function getOwnerTamas(address _owner) \r\n    public view returns(Tama[] memory) {\r\n        Tama[] memory result = new Tama[](balanceOf(_owner));\r\n        uint256 counter = 0;\r\n        \r\n        for(uint256 i = 0; i < tamas.length; i++) {\r\n            if(ownerOf(i) == _owner ) {\r\n                result[counter] = tamas[i];\r\n                counter++;\r\n            }\r\n        }\r\n\r\n        return result;\r\n    }\r\n\r\n\r\n    // Helpers\r\n    function _generateNumber(uint256 _mod) internal view returns(uint256) {\r\n        uint256 randomNumber = uint256(keccak256(abi.encodePacked(block.timestamp, msg.sender)));\r\n        return randomNumber % _mod;\r\n    }\r\n\r\n    function updateFee(uint256 _fee) external onlyOwner() {\r\n        fee = _fee;\r\n    }\r\n\r\n    function withdraw() external payable onlyOwner() {\r\n        address payable _owner = payable(owner());\r\n        _owner.transfer(address(this).balance);\r\n    }\r\n}",
  "sourcePath": "C:\\development\\projects\\tama\\contracts\\TamaToken.sol",
  "compiler": {
    "name": "solc",
    "version": "0.8.17+commit.8df45f5f.Emscripten.clang"
  },
  "schemaVersion": "3.4.11",
  "updatedAt": "2023-01-03T02:36:40.362Z",
  "networkType": "ethereum",
  "devdoc": {
    "kind": "dev",
    "methods": {
      "approve(address,uint256)": {
        "details": "See {IERC721-approve}."
      },
      "balanceOf(address)": {
        "details": "See {IERC721-balanceOf}."
      },
      "getApproved(uint256)": {
        "details": "See {IERC721-getApproved}."
      },
      "isApprovedForAll(address,address)": {
        "details": "See {IERC721-isApprovedForAll}."
      },
      "name()": {
        "details": "See {IERC721Metadata-name}."
      },
      "owner()": {
        "details": "Returns the address of the current owner."
      },
      "ownerOf(uint256)": {
        "details": "See {IERC721-ownerOf}."
      },
      "renounceOwnership()": {
        "details": "Leaves the contract without owner. It will not be possible to call `onlyOwner` functions anymore. Can only be called by the current owner. NOTE: Renouncing ownership will leave the contract without an owner, thereby removing any functionality that is only available to the owner."
      },
      "safeTransferFrom(address,address,uint256)": {
        "details": "See {IERC721-safeTransferFrom}."
      },
      "safeTransferFrom(address,address,uint256,bytes)": {
        "details": "See {IERC721-safeTransferFrom}."
      },
      "setApprovalForAll(address,bool)": {
        "details": "See {IERC721-setApprovalForAll}."
      },
      "supportsInterface(bytes4)": {
        "details": "See {IERC165-supportsInterface}."
      },
      "symbol()": {
        "details": "See {IERC721Metadata-symbol}."
      },
      "tokenURI(uint256)": {
        "details": "See {IERC721Metadata-tokenURI}."
      },
      "transferFrom(address,address,uint256)": {
        "details": "See {IERC721-transferFrom}."
      },
      "transferOwnership(address)": {
        "details": "Transfers ownership of the contract to a new account (`newOwner`). Can only be called by the current owner."
      }
    },
    "version": 1
  },
  "userdoc": {
    "kind": "user",
    "methods": {},
    "version": 1
  }
}