{
  "contractName": "TamaToken",
  "abi": [
    {
      "inputs": [
        {
          "internalType": "string",
          "name": "_name",
          "type": "string"
        },
        {
          "internalType": "string",
          "name": "_symbol",
          "type": "string"
        }
      ],
      "stateMutability": "nonpayable",
      "type": "constructor"
    },
    {
      "anonymous": false,
      "inputs": [
        {
          "indexed": true,
          "internalType": "address",
          "name": "owner",
          "type": "address"
        },
        {
          "indexed": true,
          "internalType": "address",
          "name": "approved",
          "type": "address"
        },
        {
          "indexed": true,
          "internalType": "uint256",
          "name": "tokenId",
          "type": "uint256"
        }
      ],
      "name": "Approval",
      "type": "event"
    },
    {
      "anonymous": false,
      "inputs": [
        {
          "indexed": true,
          "internalType": "address",
          "name": "owner",
          "type": "address"
        },
        {
          "indexed": true,
          "internalType": "address",
          "name": "operator",
          "type": "address"
        },
        {
          "indexed": false,
          "internalType": "bool",
          "name": "approved",
          "type": "bool"
        }
      ],
      "name": "ApprovalForAll",
      "type": "event"
    },
    {
      "anonymous": false,
      "inputs": [
        {
          "indexed": true,
          "internalType": "address",
          "name": "owner",
          "type": "address"
        },
        {
          "indexed": false,
          "internalType": "uint256",
          "name": "id",
          "type": "uint256"
        },
        {
          "indexed": false,
          "internalType": "uint256",
          "name": "dna",
          "type": "uint256"
        }
      ],
      "name": "NewTamaEvent",
      "type": "event"
    },
    {
      "anonymous": false,
      "inputs": [
        {
          "indexed": true,
          "internalType": "address",
          "name": "previousOwner",
          "type": "address"
        },
        {
          "indexed": true,
          "internalType": "address",
          "name": "newOwner",
          "type": "address"
        }
      ],
      "name": "OwnershipTransferred",
      "type": "event"
    },
    {
      "anonymous": false,
      "inputs": [
        {
          "indexed": true,
          "internalType": "address",
          "name": "from",
          "type": "address"
        },
        {
          "indexed": true,
          "internalType": "address",
          "name": "to",
          "type": "address"
        },
        {
          "indexed": true,
          "internalType": "uint256",
          "name": "tokenId",
          "type": "uint256"
        }
      ],
      "name": "Transfer",
      "type": "event"
    },
    {
      "inputs": [
        {
          "internalType": "address",
          "name": "to",
          "type": "address"
        },
        {
          "internalType": "uint256",
          "name": "tokenId",
          "type": "uint256"
        }
      ],
      "name": "approve",
      "outputs": [],
      "stateMutability": "nonpayable",
      "type": "function"
    },
    {
      "inputs": [
        {
          "internalType": "address",
          "name": "owner",
          "type": "address"
        }
      ],
      "name": "balanceOf",
      "outputs": [
        {
          "internalType": "uint256",
          "name": "",
          "type": "uint256"
        }
      ],
      "stateMutability": "view",
      "type": "function",
      "constant": true
    },
    {
      "inputs": [
        {
          "internalType": "uint256",
          "name": "tokenId",
          "type": "uint256"
        }
      ],
      "name": "getApproved",
      "outputs": [
        {
          "internalType": "address",
          "name": "",
          "type": "address"
        }
      ],
      "stateMutability": "view",
      "type": "function",
      "constant": true
    },
    {
      "inputs": [
        {
          "internalType": "address",
          "name": "owner",
          "type": "address"
        },
        {
          "internalType": "address",
          "name": "operator",
          "type": "address"
        }
      ],
      "name": "isApprovedForAll",
      "outputs": [
        {
          "internalType": "bool",
          "name": "",
          "type": "bool"
        }
      ],
      "stateMutability": "view",
      "type": "function",
      "constant": true
    },
    {
      "inputs": [],
      "name": "name",
      "outputs": [
        {
          "internalType": "string",
          "name": "",
          "type": "string"
        }
      ],
      "stateMutability": "view",
      "type": "function",
      "constant": true
    },
    {
      "inputs": [],
      "name": "owner",
      "outputs": [
        {
          "internalType": "address",
          "name": "",
          "type": "address"
        }
      ],
      "stateMutability": "view",
      "type": "function",
      "constant": true
    },
    {
      "inputs": [
        {
          "internalType": "uint256",
          "name": "tokenId",
          "type": "uint256"
        }
      ],
      "name": "ownerOf",
      "outputs": [
        {
          "internalType": "address",
          "name": "",
          "type": "address"
        }
      ],
      "stateMutability": "view",
      "type": "function",
      "constant": true
    },
    {
      "inputs": [],
      "name": "renounceOwnership",
      "outputs": [],
      "stateMutability": "nonpayable",
      "type": "function"
    },
    {
      "inputs": [
        {
          "internalType": "address",
          "name": "from",
          "type": "address"
        },
        {
          "internalType": "address",
          "name": "to",
          "type": "address"
        },
        {
          "internalType": "uint256",
          "name": "tokenId",
          "type": "uint256"
        }
      ],
      "name": "safeTransferFrom",
      "outputs": [],
      "stateMutability": "nonpayable",
      "type": "function"
    },
    {
      "inputs": [
        {
          "internalType": "address",
          "name": "from",
          "type": "address"
        },
        {
          "internalType": "address",
          "name": "to",
          "type": "address"
        },
        {
          "internalType": "uint256",
          "name": "tokenId",
          "type": "uint256"
        },
        {
          "internalType": "bytes",
          "name": "data",
          "type": "bytes"
        }
      ],
      "name": "safeTransferFrom",
      "outputs": [],
      "stateMutability": "nonpayable",
      "type": "function"
    },
    {
      "inputs": [
        {
          "internalType": "address",
          "name": "operator",
          "type": "address"
        },
        {
          "internalType": "bool",
          "name": "approved",
          "type": "bool"
        }
      ],
      "name": "setApprovalForAll",
      "outputs": [],
      "stateMutability": "nonpayable",
      "type": "function"
    },
    {
      "inputs": [
        {
          "internalType": "bytes4",
          "name": "interfaceId",
          "type": "bytes4"
        }
      ],
      "name": "supportsInterface",
      "outputs": [
        {
          "internalType": "bool",
          "name": "",
          "type": "bool"
        }
      ],
      "stateMutability": "view",
      "type": "function",
      "constant": true
    },
    {
      "inputs": [],
      "name": "symbol",
      "outputs": [
        {
          "internalType": "string",
          "name": "",
          "type": "string"
        }
      ],
      "stateMutability": "view",
      "type": "function",
      "constant": true
    },
    {
      "inputs": [
        {
          "internalType": "uint256",
          "name": "tokenId",
          "type": "uint256"
        }
      ],
      "name": "tokenURI",
      "outputs": [
        {
          "internalType": "string",
          "name": "",
          "type": "string"
        }
      ],
      "stateMutability": "view",
      "type": "function",
      "constant": true
    },
    {
      "inputs": [
        {
          "internalType": "address",
          "name": "from",
          "type": "address"
        },
        {
          "internalType": "address",
          "name": "to",
          "type": "address"
        },
        {
          "internalType": "uint256",
          "name": "tokenId",
          "type": "uint256"
        }
      ],
      "name": "transferFrom",
      "outputs": [],
      "stateMutability": "nonpayable",
      "type": "function"
    },
    {
      "inputs": [
        {
          "internalType": "address",
          "name": "newOwner",
          "type": "address"
        }
      ],
      "name": "transferOwnership",
      "outputs": [],
      "stateMutability": "nonpayable",
      "type": "function"
    },
    {
      "inputs": [
        {
          "internalType": "string",
          "name": "_name",
          "type": "string"
        }
      ],
      "name": "createRandomTama",
      "outputs": [],
      "stateMutability": "payable",
      "type": "function",
      "payable": true
    },
    {
      "inputs": [],
      "name": "getTamas",
      "outputs": [
        {
          "components": [
            {
              "internalType": "string",
              "name": "name",
              "type": "string"
            },
            {
              "internalType": "uint256",
              "name": "id",
              "type": "uint256"
            },
            {
              "internalType": "uint256",
              "name": "dna",
              "type": "uint256"
            },
            {
              "internalType": "uint8",
              "name": "level",
              "type": "uint8"
            },
            {
              "internalType": "uint8",
              "name": "rarity",
              "type": "uint8"
            }
          ],
          "internalType": "struct TamaToken.Tama[]",
          "name": "",
          "type": "tuple[]"
        }
      ],
      "stateMutability": "view",
      "type": "function",
      "constant": true
    },
    {
      "inputs": [
        {
          "internalType": "uint256",
          "name": "_fee",
          "type": "uint256"
        }
      ],
      "name": "updateFee",
      "outputs": [],
      "stateMutability": "nonpayable",
      "type": "function"
    },
    {
      "inputs": [],
      "name": "withdraw",
      "outputs": [],
      "stateMutability": "payable",
      "type": "function",
      "payable": true
    }
  ],
  "bytecode": "0x60806040526001600755670de0b6b3a76400006008553480156200002257600080fd5b5060405162001f8238038062001f828339810160408190526200004591620001a4565b818160006200005583826200029d565b5060016200006482826200029d565b505050620000816200007b6200008960201b60201c565b6200008d565b505062000369565b3390565b600680546001600160a01b038381166001600160a01b0319831681179093556040519116919082907f8be0079c531659141344cd1fd0a4f28419497f9722a3daafe3b4186f6b6457e090600090a35050565b634e487b7160e01b600052604160045260246000fd5b600082601f8301126200010757600080fd5b81516001600160401b0380821115620001245762000124620000df565b604051601f8301601f19908116603f011681019082821181831017156200014f576200014f620000df565b816040528381526020925086838588010111156200016c57600080fd5b600091505b8382101562000190578582018301518183018401529082019062000171565b600093810190920192909252949350505050565b60008060408385031215620001b857600080fd5b82516001600160401b0380821115620001d057600080fd5b620001de86838701620000f5565b93506020850151915080821115620001f557600080fd5b506200020485828601620000f5565b9150509250929050565b600181811c908216806200022357607f821691505b6020821081036200024457634e487b7160e01b600052602260045260246000fd5b50919050565b601f8211156200029857600081815260208120601f850160051c81016020861015620002735750805b601f850160051c820191505b8181101562000294578281556001016200027f565b5050505b505050565b81516001600160401b03811115620002b957620002b9620000df565b620002d181620002ca84546200020e565b846200024a565b602080601f831160018114620003095760008415620002f05750858301515b600019600386901b1c1916600185901b17855562000294565b600085815260208120601f198616915b828110156200033a5788860151825594840194600190910190840162000319565b5085821015620003595787850151600019600388901b60f8161c191681555b5050505050600190811b01905550565b611c0980620003796000396000f3fe60806040526004361061011f5760003560e01c806370a08231116100a0578063a22cb46511610064578063a22cb46514610308578063b88d4fde14610328578063c87b56dd14610348578063e985e9c514610368578063f2fde38b1461038857600080fd5b806370a0823114610272578063715018a6146102a05780638da5cb5b146102b55780639012c4a8146102d357806395d89b41146102f357600080fd5b806323b872dd116100e757806323b872dd146101e85780633ccfd60b1461020857806342842e0e14610210578063479a585a146102305780636352211e1461025257600080fd5b806301ffc9a71461012457806306fdde0314610159578063081812fc1461017b578063095ea7b3146101b35780630d542a08146101d5575b600080fd5b34801561013057600080fd5b5061014461013f366004611513565b6103a8565b60405190151581526020015b60405180910390f35b34801561016557600080fd5b5061016e6103fa565b6040516101509190611580565b34801561018757600080fd5b5061019b610196366004611593565b61048c565b6040516001600160a01b039091168152602001610150565b3480156101bf57600080fd5b506101d36101ce3660046115c8565b6104b3565b005b6101d36101e336600461167e565b6105cd565b3480156101f457600080fd5b506101d36102033660046116c7565b61061c565b6101d361064d565b34801561021c57600080fd5b506101d361022b3660046116c7565b6106a5565b34801561023c57600080fd5b506102456106c0565b6040516101509190611703565b34801561025e57600080fd5b5061019b61026d366004611593565b6107e6565b34801561027e57600080fd5b5061029261028d3660046117a1565b610846565b604051908152602001610150565b3480156102ac57600080fd5b506101d36108cc565b3480156102c157600080fd5b506006546001600160a01b031661019b565b3480156102df57600080fd5b506101d36102ee366004611593565b6108e0565b3480156102ff57600080fd5b5061016e6108ed565b34801561031457600080fd5b506101d36103233660046117bc565b6108fc565b34801561033457600080fd5b506101d36103433660046117f8565b610907565b34801561035457600080fd5b5061016e610363366004611593565b61093f565b34801561037457600080fd5b50610144610383366004611874565b6109b3565b34801561039457600080fd5b506101d36103a33660046117a1565b6109e1565b60006001600160e01b031982166380ac58cd60e01b14806103d957506001600160e01b03198216635b5e139f60e01b145b806103f457506301ffc9a760e01b6001600160e01b03198316145b92915050565b606060008054610409906118a7565b80601f0160208091040260200160405190810160405280929190818152602001828054610435906118a7565b80156104825780601f1061045757610100808354040283529160200191610482565b820191906000526020600020905b81548152906001019060200180831161046557829003601f168201915b5050505050905090565b600061049782610a57565b506000908152600460205260409020546001600160a01b031690565b60006104be826107e6565b9050806001600160a01b0316836001600160a01b0316036105305760405162461bcd60e51b815260206004820152602160248201527f4552433732313a20617070726f76616c20746f2063757272656e74206f776e656044820152603960f91b60648201526084015b60405180910390fd5b336001600160a01b038216148061054c575061054c81336109b3565b6105be5760405162461bcd60e51b815260206004820152603d60248201527f4552433732313a20617070726f76652063616c6c6572206973206e6f7420746f60448201527f6b656e206f776e6572206f7220617070726f76656420666f7220616c6c0000006064820152608401610527565b6105c88383610ab6565b505050565b6008543410156106105760405162461bcd60e51b815260206004820152600e60248201526d4e6f7420656e6f7567682066656560901b6044820152606401610527565b61061981610b24565b50565b6106263382610c51565b6106425760405162461bcd60e51b8152600401610527906118e1565b6105c8838383610cb0565b610655610e21565b60006106696006546001600160a01b031690565b6040519091506001600160a01b038216904780156108fc02916000818181858888f193505050501580156106a1573d6000803e3d6000fd5b5050565b6105c883838360405180602001604052806000815250610907565b60606009805480602002602001604051908101604052809291908181526020016000905b828210156107dd57838290600052602060002090600402016040518060a0016040529081600082018054610717906118a7565b80601f0160208091040260200160405190810160405280929190818152602001828054610743906118a7565b80156107905780601f1061076557610100808354040283529160200191610790565b820191906000526020600020905b81548152906001019060200180831161077357829003601f168201915b50505091835250506001828101546020808401919091526002840154604084015260039093015460ff808216606085015261010090910416608090920191909152918352920191016106e4565b50505050905090565b6000818152600260205260408120546001600160a01b0316806103f45760405162461bcd60e51b8152602060048201526018602482015277115490cdcc8c4e881a5b9d985b1a59081d1bdad95b88125160421b6044820152606401610527565b60006001600160a01b0382166108b05760405162461bcd60e51b815260206004820152602960248201527f4552433732313a2061646472657373207a65726f206973206e6f7420612076616044820152683634b21037bbb732b960b91b6064820152608401610527565b506001600160a01b031660009081526003602052604090205490565b6108d4610e21565b6108de6000610e7b565b565b6108e8610e21565b600855565b606060018054610409906118a7565b6106a1338383610ecd565b6109113383610c51565b61092d5760405162461bcd60e51b8152600401610527906118e1565b61093984848484610f9b565b50505050565b606061094a82610a57565b600061096160408051602081019091526000815290565b9050600081511161098157604051806020016040528060008152506109ac565b8061098b84610fce565b60405160200161099c92919061192e565b6040516020818303038152906040525b9392505050565b6001600160a01b03918216600090815260056020908152604080832093909416825291909152205460ff1690565b6109e9610e21565b6001600160a01b038116610a4e5760405162461bcd60e51b815260206004820152602660248201527f4f776e61626c653a206e6577206f776e657220697320746865207a65726f206160448201526564647265737360d01b6064820152608401610527565b61061981610e7b565b6000818152600260205260409020546001600160a01b03166106195760405162461bcd60e51b8152602060048201526018602482015277115490cdcc8c4e881a5b9d985b1a59081d1bdad95b88125160421b6044820152606401610527565b600081815260046020526040902080546001600160a01b0319166001600160a01b0384169081179091558190610aeb826107e6565b6001600160a01b03167f8c5be1e5ebec7d5bd14f71427d1e84f3dd0314c0f7b2291e5b200ac8c7c3b92560405160405180910390a45050565b6000610b36662386f26fc10000611061565b6040805160a0810182528481526007546020820152908101829052600160608201819052608082018190526009805491820181556000528151929350909182916004027f6e1540171b6c0c960b71a7020d9f60077f6af931a8bbf590da0223dacf75c7af01908190610ba890826119ab565b50602082015160018201556040820151600282015560608201516003909101805460809093015160ff9081166101000261ffff19909416921691909117919091179055600754610bf99033906110b6565b600754604080519182526020820184905233917faa53bee18524d71478838ab6ea8cb1897202e7df3abf3b4219b971f0d6a2fafa910160405180910390a260078054906000610c4783611a81565b9190505550505050565b600080610c5d836107e6565b9050806001600160a01b0316846001600160a01b03161480610c845750610c8481856109b3565b80610ca85750836001600160a01b0316610c9d8461048c565b6001600160a01b0316145b949350505050565b826001600160a01b0316610cc3826107e6565b6001600160a01b031614610ce95760405162461bcd60e51b815260040161052790611a9a565b6001600160a01b038216610d4b5760405162461bcd60e51b8152602060048201526024808201527f4552433732313a207472616e7366657220746f20746865207a65726f206164646044820152637265737360e01b6064820152608401610527565b610d5883838360016110d0565b826001600160a01b0316610d6b826107e6565b6001600160a01b031614610d915760405162461bcd60e51b815260040161052790611a9a565b600081815260046020908152604080832080546001600160a01b03199081169091556001600160a01b0387811680865260038552838620805460001901905590871680865283862080546001019055868652600290945282852080549092168417909155905184937fddf252ad1be2c89b69c2b068fc378daa952ba7f163c4a11628f55a4df523b3ef91a4505050565b6006546001600160a01b031633146108de5760405162461bcd60e51b815260206004820181905260248201527f4f776e61626c653a2063616c6c6572206973206e6f7420746865206f776e65726044820152606401610527565b600680546001600160a01b038381166001600160a01b0319831681179093556040519116919082907f8be0079c531659141344cd1fd0a4f28419497f9722a3daafe3b4186f6b6457e090600090a35050565b816001600160a01b0316836001600160a01b031603610f2e5760405162461bcd60e51b815260206004820152601960248201527f4552433732313a20617070726f766520746f2063616c6c6572000000000000006044820152606401610527565b6001600160a01b03838116600081815260056020908152604080832094871680845294825291829020805460ff191686151590811790915591519182527f17307eab39ab6107e8899845ad3d59bd9653f200f220920489ca2b5937696c31910160405180910390a3505050565b610fa6848484610cb0565b610fb284848484611158565b6109395760405162461bcd60e51b815260040161052790611adf565b60606000610fdb83611259565b600101905060008167ffffffffffffffff811115610ffb57610ffb6115f2565b6040519080825280601f01601f191660200182016040528015611025576020820181803683370190505b5090508181016020015b600019016f181899199a1a9b1b9c1cb0b131b232b360811b600a86061a8153600a850494508461102f57509392505050565b600080423360405160200161109292919091825260601b6bffffffffffffffffffffffff1916602082015260340190565b60408051601f19818403018152919052805160209091012090506109ac8382611b31565b6106a1828260405180602001604052806000815250611331565b6001811115610939576001600160a01b03841615611116576001600160a01b03841660009081526003602052604081208054839290611110908490611b53565b90915550505b6001600160a01b03831615610939576001600160a01b0383166000908152600360205260408120805483929061114d908490611b66565b909155505050505050565b60006001600160a01b0384163b1561124e57604051630a85bd0160e11b81526001600160a01b0385169063150b7a029061119c903390899088908890600401611b79565b6020604051808303816000875af19250505080156111d7575060408051601f3d908101601f191682019092526111d491810190611bb6565b60015b611234573d808015611205576040519150601f19603f3d011682016040523d82523d6000602084013e61120a565b606091505b50805160000361122c5760405162461bcd60e51b815260040161052790611adf565b805181602001fd5b6001600160e01b031916630a85bd0160e11b149050610ca8565b506001949350505050565b60008072184f03e93ff9f4daa797ed6e38ed64bf6a1f0160401b83106112985772184f03e93ff9f4daa797ed6e38ed64bf6a1f0160401b830492506040015b6d04ee2d6d415b85acef810000000083106112c4576d04ee2d6d415b85acef8100000000830492506020015b662386f26fc1000083106112e257662386f26fc10000830492506010015b6305f5e10083106112fa576305f5e100830492506008015b612710831061130e57612710830492506004015b60648310611320576064830492506002015b600a83106103f45760010192915050565b61133b8383611364565b6113486000848484611158565b6105c85760405162461bcd60e51b815260040161052790611adf565b6001600160a01b0382166113ba5760405162461bcd60e51b815260206004820181905260248201527f4552433732313a206d696e7420746f20746865207a65726f20616464726573736044820152606401610527565b6000818152600260205260409020546001600160a01b03161561141f5760405162461bcd60e51b815260206004820152601c60248201527f4552433732313a20746f6b656e20616c7265616479206d696e746564000000006044820152606401610527565b61142d6000838360016110d0565b6000818152600260205260409020546001600160a01b0316156114925760405162461bcd60e51b815260206004820152601c60248201527f4552433732313a20746f6b656e20616c7265616479206d696e746564000000006044820152606401610527565b6001600160a01b038216600081815260036020908152604080832080546001019055848352600290915280822080546001600160a01b0319168417905551839291907fddf252ad1be2c89b69c2b068fc378daa952ba7f163c4a11628f55a4df523b3ef908290a45050565b6001600160e01b03198116811461061957600080fd5b60006020828403121561152557600080fd5b81356109ac816114fd565b60005b8381101561154b578181015183820152602001611533565b50506000910152565b6000815180845261156c816020860160208601611530565b601f01601f19169290920160200192915050565b6020815260006109ac6020830184611554565b6000602082840312156115a557600080fd5b5035919050565b80356001600160a01b03811681146115c357600080fd5b919050565b600080604083850312156115db57600080fd5b6115e4836115ac565b946020939093013593505050565b634e487b7160e01b600052604160045260246000fd5b600067ffffffffffffffff80841115611623576116236115f2565b604051601f8501601f19908116603f0116810190828211818310171561164b5761164b6115f2565b8160405280935085815286868601111561166457600080fd5b858560208301376000602087830101525050509392505050565b60006020828403121561169057600080fd5b813567ffffffffffffffff8111156116a757600080fd5b8201601f810184136116b857600080fd5b610ca884823560208401611608565b6000806000606084860312156116dc57600080fd5b6116e5846115ac565b92506116f3602085016115ac565b9150604084013590509250925092565b60006020808301818452808551808352604092508286019150828160051b87010184880160005b8381101561179357603f19898403018552815160a0815181865261175082870182611554565b838b0151878c0152898401518a88015260608085015160ff908116918901919091526080948501511693909601929092525050938601939086019060010161172a565b509098975050505050505050565b6000602082840312156117b357600080fd5b6109ac826115ac565b600080604083850312156117cf57600080fd5b6117d8836115ac565b9150602083013580151581146117ed57600080fd5b809150509250929050565b6000806000806080858703121561180e57600080fd5b611817856115ac565b9350611825602086016115ac565b925060408501359150606085013567ffffffffffffffff81111561184857600080fd5b8501601f8101871361185957600080fd5b61186887823560208401611608565b91505092959194509250565b6000806040838503121561188757600080fd5b611890836115ac565b915061189e602084016115ac565b90509250929050565b600181811c908216806118bb57607f821691505b6020821081036118db57634e487b7160e01b600052602260045260246000fd5b50919050565b6020808252602d908201527f4552433732313a2063616c6c6572206973206e6f7420746f6b656e206f776e6560408201526c1c881bdc88185c1c1c9bdd9959609a1b606082015260800190565b60008351611940818460208801611530565b835190830190611954818360208801611530565b01949350505050565b601f8211156105c857600081815260208120601f850160051c810160208610156119845750805b601f850160051c820191505b818110156119a357828155600101611990565b505050505050565b815167ffffffffffffffff8111156119c5576119c56115f2565b6119d9816119d384546118a7565b8461195d565b602080601f831160018114611a0e57600084156119f65750858301515b600019600386901b1c1916600185901b1785556119a3565b600085815260208120601f198616915b82811015611a3d57888601518255948401946001909101908401611a1e565b5085821015611a5b5787850151600019600388901b60f8161c191681555b5050505050600190811b01905550565b634e487b7160e01b600052601160045260246000fd5b600060018201611a9357611a93611a6b565b5060010190565b60208082526025908201527f4552433732313a207472616e736665722066726f6d20696e636f72726563742060408201526437bbb732b960d91b606082015260800190565b60208082526032908201527f4552433732313a207472616e7366657220746f206e6f6e20455243373231526560408201527131b2b4bb32b91034b6b83632b6b2b73a32b960711b606082015260800190565b600082611b4e57634e487b7160e01b600052601260045260246000fd5b500690565b818103818111156103f4576103f4611a6b565b808201808211156103f4576103f4611a6b565b6001600160a01b0385811682528416602082015260408101839052608060608201819052600090611bac90830184611554565b9695505050505050565b600060208284031215611bc857600080fd5b81516109ac816114fd56fea2646970667358221220d6b7249e770194efaace530456d17f5bb022c9ecf5840dedf75e5596b2c69f2364736f6c63430008110033",
  "immutableReferences": {},
  "source": "// SPDX-License-Identifier: GPL-3.0\r\n\r\npragma solidity >=0.7.0 <0.9.0;\r\n\r\nimport \"@openzeppelin/contracts/access/Ownable.sol\";\r\nimport \"@openzeppelin/contracts/token/ERC721/ERC721.sol\";\r\n\r\ncontract TamaToken is ERC721, Ownable {\r\n    constructor(string memory _name, string memory _symbol) \r\n        ERC721(_name, _symbol)\r\n    {}\r\n\r\n    uint256 COUNTER = 1;\r\n\r\n    uint256 fee = 1 ether;\r\n\r\n    struct Tama {\r\n        string name;\r\n        uint256 id;\r\n        uint256 dna;\r\n        uint8 level;\r\n        uint8 rarity;\r\n    }\r\n\r\n    Tama[] tamas;\r\n\r\n    event NewTamaEvent(address indexed owner, uint256 id, uint256 dna);\r\n\r\n    \r\n    // Creation \r\n    function _createTama(string memory _name) internal {\r\n        uint256 randomDna = _generateNumber(10**16);\r\n        Tama memory newTama = Tama(_name, COUNTER, randomDna, 1, 1);\r\n        tamas.push(newTama);\r\n        _safeMint(msg.sender, COUNTER);\r\n        emit NewTamaEvent(msg.sender, COUNTER, randomDna);\r\n        COUNTER++;\r\n    }\r\n\r\n    function createRandomTama(string memory _name) public payable {\r\n        require(msg.value >= fee, \"Not enough fee\");\r\n        \r\n        _createTama(_name);\r\n    }\r\n\r\n\r\n    // Getters\r\n    function getTamas() \r\n    public view returns(Tama[] memory) {\r\n        return tamas;\r\n    }\r\n\r\n\r\n    // Helpers\r\n    function _generateNumber(uint256 _mod) internal view returns(uint256) {\r\n        uint256 randomNumber = uint256(keccak256(abi.encodePacked(block.timestamp, msg.sender)));\r\n        return randomNumber % _mod;\r\n    }\r\n\r\n    function updateFee(uint256 _fee) external onlyOwner() {\r\n        fee = _fee;\r\n    }\r\n\r\n    function withdraw() external payable onlyOwner() {\r\n        address payable _owner = payable(owner());\r\n        _owner.transfer(address(this).balance);\r\n    }\r\n}",
  "sourcePath": "C:\\development\\projects\\tama\\contracts\\TamaToken.sol",
  "compiler": {
    "name": "solc",
    "version": "0.8.17+commit.8df45f5f.Emscripten.clang"
  },
  "schemaVersion": "3.4.11",
  "updatedAt": "2023-01-02T00:56:30.915Z",
  "networkType": "ethereum",
  "devdoc": {
    "kind": "dev",
    "methods": {
      "approve(address,uint256)": {
        "details": "See {IERC721-approve}."
      },
      "balanceOf(address)": {
        "details": "See {IERC721-balanceOf}."
      },
      "getApproved(uint256)": {
        "details": "See {IERC721-getApproved}."
      },
      "isApprovedForAll(address,address)": {
        "details": "See {IERC721-isApprovedForAll}."
      },
      "name()": {
        "details": "See {IERC721Metadata-name}."
      },
      "owner()": {
        "details": "Returns the address of the current owner."
      },
      "ownerOf(uint256)": {
        "details": "See {IERC721-ownerOf}."
      },
      "renounceOwnership()": {
        "details": "Leaves the contract without owner. It will not be possible to call `onlyOwner` functions anymore. Can only be called by the current owner. NOTE: Renouncing ownership will leave the contract without an owner, thereby removing any functionality that is only available to the owner."
      },
      "safeTransferFrom(address,address,uint256)": {
        "details": "See {IERC721-safeTransferFrom}."
      },
      "safeTransferFrom(address,address,uint256,bytes)": {
        "details": "See {IERC721-safeTransferFrom}."
      },
      "setApprovalForAll(address,bool)": {
        "details": "See {IERC721-setApprovalForAll}."
      },
      "supportsInterface(bytes4)": {
        "details": "See {IERC165-supportsInterface}."
      },
      "symbol()": {
        "details": "See {IERC721Metadata-symbol}."
      },
      "tokenURI(uint256)": {
        "details": "See {IERC721Metadata-tokenURI}."
      },
      "transferFrom(address,address,uint256)": {
        "details": "See {IERC721-transferFrom}."
      },
      "transferOwnership(address)": {
        "details": "Transfers ownership of the contract to a new account (`newOwner`). Can only be called by the current owner."
      }
    },
    "version": 1
  },
  "userdoc": {
    "kind": "user",
    "methods": {},
    "version": 1
  }
}